:020000040800F2
:10000000E80500203D040008110200081302000862
:10001000170200081B0200081F0200080000000071
:1000200000000000000000000000000023020008A3
:10003000250200080000000027020008290200082D
:100040005704000857040008570400085704000824
:100050005704000857040008570400085704000814
:100060005704000857040008570400085704000804
:1000700057040008570400085704000857040008F4
:1000800057040008570400085704000857040008E4
:1000900057040008570400085704000857040008D4
:1000A00057040008570400085704000857040008C4
:1000B0007B290008E92800085704000857040008B5
:1000C00057040008570400085704000857040008A4
:1000D00057040008FF2600085704000857040008CA
:1000E0005704000857040008570400085704000884
:1000F0005704000857040008570400085704000874
:100100005704000857040008570400085704000863
:100110005704000857040008570400085704000853
:100120005704000857040008570400085704000843
:100130005704000857040008570400085704000833
:100140005704000857040008570400085704000823
:100150005704000857040008570400085704000813
:100160005704000857040008570400085704000803
:1001700057040008570400085704000857040008F3
:100180005704000857040008DFF810D005F0DCFE23
:1001900000480047A1010008AFF30080E8050020F7
:1001A00002F028FA4FF6FF7003F00BF953217C2080
:1001B00002F0A8FB42F2D00142F20F7002F068FB9D
:1001C00003F031FF00231A460221012005F01CF93B
:1001D000882002F0D1FA17E00C48007820B1002006
:1001E0000A49087002F07FFC0848407860B100209E
:1001F0000649487005F016F904F09AFF05F07EFAFA
:1002000005F0D8F905F08EFAE6E700003500002089
:10021000704700BFFEE700BFFEE700BFFEE700BF7C
:10022000FEE7704770477047704700000CB500202C
:10023000019000907648006840F48030744908606E
:1002400000BF7348006800F4003000900198401C23
:100250000190009818B90198B0F5A04FF1D16C4801
:10026000006800F4003010B10120009001E000208F
:1002700000900098012846D165484030006840F061
:1002800080506349403108606248006840F4404053
:10029000604908605E48083000685D4908310860C0
:1002A0000846006840F4004008600846006840F4D2
:1002B000A05008605848091F0860081F006840F0F7
:1002C0008070091F086000BF5148006800F000708E
:1002D0000028F9D040F20570504908604C480830B9
:1002E000006820F003004A490831086008460068A9
:1002F00040F00200086000BF45480830006800F088
:100300000C000828F8D10CBD10B54548006840F431
:100310007000434908603E48006840F001003C49D5
:10032000086000203A4908310860394800683D49B2
:100330000840374908603C48091D0860081F0068EC
:1003400020F48020091F0860002031490C3108602A
:10035000FFF76CFF4FF0006031498039086010BD35
:1003600070B500200022022300240221284D083508
:100370002D6805F00C0020B1042806D0082834D1DF
:1003800007E02A4D2A4E356033E02A4D284E35606D
:100390002FE01F4D2D1D2D68C5F380541C4D2D1DC4
:1003A0002D6805F03F0154B1224DB5FBF1F5184E13
:1003B000361D3668C6F3881605FB06F209E01B4DAC
:1003C000B5FBF1F5124E361D3668C6F3881605FBEF
:1003D00006F20F4D2D1D2D68C5F301456D1C6B00F8
:1003E000B2FBF3F5124E356003E0104D104E356050
:1003F00000BF00BF064D08352D68C5F303150E4E2E
:10040000705D0B4D2D68C540094E356070BD000014
:10041000003802400070004008544007003C024091
:1004200088ED00E0FFFFF6FE103000240024F40009
:100430000000002000127A000400002006488047D7
:1004400006480047FEE7FEE7FEE7FEE7FEE7FEE7B9
:10045000FEE7FEE7FEE7FEE7090300088901000862
:1004600032490143324A1160704770B500210023C0
:100470000F22C4781CB32E4C246804F4E064C4F545
:10048000E064C4F30721C1F10404E3B20A414478F3
:100490009C40E1B28478144021430C07210E254C86
:1004A00005786155047804F01F050124AC400578F7
:1004B0006D11AD0005F1E025C5F8004109E00478B3
:1004C00004F01F050124AC401B4D0678761145F859
:1004D000264070BD194A0A400243154B1B1F1A6083
:1004E000704739B1124A121D12680243104B1B1D8E
:1004F0001A6006E00E4A121D126882430C4B1B1D47
:100500001A607047042808D14FF0E021096941F0D2
:1005100004014FF0E022116107E04FF0E02109698A
:1005200021F004014FF0E022116170470000FA054C
:100530000CED00E000E400E080E100E080FFFF1F40
:1005400030B943F2DB028100A1F1C0410A6005E04D
:1005500043F2D2028100A1F1C0410A606FF0704203
:10056000411C8900A1F1C0410A608100A1F1C04194
:10057000C1F804217047D0E901121143C268114348
:10058000026911434269114382691143C2691143EF
:10059000026A1143426A1143826A1143C26A1143DB
:1005A000026B114302689200A2F1C042116081689F
:1005B00008290BD101688900A1F1C041096841F007
:1005C000400201688900A1F1C0410A60416B0968DD
:1005D000426B526841EA0211426B926841EA022181
:1005E000426B928941EA0241426B128A41EA02510E
:1005F000426B127D41EA0261426B926911430268CB
:10060000521C9200A2F1C0421160C16AB1F5804F44
:100610001BD1816B0968826B526841EA0211826BBF
:10062000926841EA0221826B128A41EA0251826B8E
:10063000127D41EA0261826B926911430268920065
:10064000A2F1C042C2F8041107E06FF070420168E5
:100650008900A1F1C041C1F8042170470021016067
:100660000221416000218160C160016141618161BD
:10067000C16101624FF480514162490081620021F1
:10068000C1620163F84941638163704751B18200DF
:10069000A2F1C042126842F001038200A2F1C042FE
:1006A000136009E08200A2F1C0421268EF4B1A40C9
:1006B0008300A3F1C0431A60704710280AD11821A3
:1006C0004FF020421166402151664FF0FC31916697
:1006D000D16610E01821E64A116040214FF0204217
:1006E000C2F884104FF0FC31E14A083211604FF03B
:1006F0002042C2F88C10704730B500210022002340
:10070000446844F0080485682C43C5682C43056997
:100710002C43456944EA4524856944EA4531C46966
:100720002468C5696D6844EA0524C5692D8944EAD1
:100730000544C5692D7B44EA0562046A2468056A9C
:100740006D6844EA0524056A2D8944EA0544056A72
:100750002D7B44EA05630468102C05D14FF020443A
:100760002166A266E36608E0C14C21604FF0204498
:10077000C4F88820BE4C0C34236030BD10210160C9
:10078000002141608160C160016141618161FC21A2
:10079000C2691160C2695160C2699160C269D16069
:1007A000026A1160026A5160026A9160026AD16055
:1007B000704799B1102808D14FF02042126E42F0D4
:1007C00004024FF020431A661DE0A94A126842F065
:1007D00004024FF02043C3F8802014E0102809D110
:1007E0004FF02042126EA14BDB1E1A404FF0204307
:1007F0001A6608E09E4A12689C4BDB1E1A404FF0B6
:100800002043C3F88020704799B1102808D14FF0D9
:100810002042126E42F040024FF020431A661DE063
:10082000934A126842F040024FF02043C3F8802000
:1008300014E0102809D14FF02042126E8B4B3F3B41
:100840001A404FF020431A6608E0894A1268874B25
:100850003F3B1A404FF02043C3F8802070470146C9
:100860000020102903D14FF02042506F02E0804A4F
:1008700014321068704718207D492031086000202C
:100880000906C1F8A4004FF0FC307949283108600E
:10089000091D0860091D08607047016841F01001DA
:1008A000426841EA4221826841EA4231704A20327C
:1008B0001160C1680968C268526841EA0221C268D1
:1008C000128941EA0241C268127B41EA0261684A28
:1008D00028321160016909680269526841EA0221FF
:1008E0000269128941EA02410269127B41EA02610E
:1008F0005F4A2C321160416909684269526841EAD5
:1009000002214269128941EA02414269127B41EAAD
:1009100002614FF02042C2F8B01070470021016020
:1009200041608160FC21C2681160C2685160C26888
:100930009160C268D1600269116002695160026908
:1009400091600269D16042691160426951604269F7
:1009500091604269D160704748B1454920310968CA
:1009600041F004014FF02042C2F8A01009E04049D4
:10097000203109683D4AD21E11404FF02042C2F892
:10098000A010704710B5F2B1102807D14FF02043E6
:100990005B6E0B434FF02044636632E0B0F5807F1E
:1009A00008D1334B1B1D1B680B434FF02044C4F888
:1009B000843026E02E4B24331B680B434FF0204439
:1009C000C4F8A4301DE0102807D14FF020435B6E1F
:1009D0008B434FF02044636613E0B0F5807F08D16D
:1009E000234B1B1D1B688B434FF02044C4F88430FD
:1009F00007E01F4B24331B688B434FF02044C4F89F
:100A0000A43010BD10B5024600200023102A03D1E7
:100A10004FF02044636E09E0B2F5807F03D1144C9F
:100A2000241D236802E0124C2434236803EA0104E5
:100A30000CB1012000E0002010BD102807D14FF0BC
:100A40002042526E8A434FF020435A6619E0B0F5B7
:100A5000807F0FD1064A121D12688A434FF020434F
:100A6000C3F884200DE000008C620008FEFF0F0038
:100A7000800000A0234A12688A434FF02043C3F845
:100A8000A420704770B502460020002300240025F2
:100A9000102A03D14FF02046736E08E0B2F5807F34
:100AA00003D1184E203E336801E0164E336803EA46
:100AB000010403EAD10514B10DB1012000E00020CA
:100AC00070BD102808D14FF02042526E22EAD102A8
:100AD0004FF020435A6614E0B0F5807F09D1094AEF
:100AE000203A126822EAD1024FF02043C3F8842052
:100AF00007E0044A126822EAD1024FF02043C3F80B
:100B0000A4207047A40000A010B504469848844271
:100B100008D10121084600F086FB0021012000F0E9
:100B200082FB76E09348844208D10121022000F044
:100B30007AFB0021022000F076FB6AE08E488442B6
:100B400008D10121042000F06EFB0021042000F0F8
:100B50006AFB5EE08948844208D10121082000F048
:100B600062FB0021082000F05EFB52E084488442D2
:100B700008D10121102000F056FB0021102000F0C8
:100B800052FB46E07F48844208D10121202000F03A
:100B90004AFB0021202000F046FB3AE07A488442DC
:100BA00008D10121402000F03EFB0021402000F050
:100BB0003AFB2EE07548844208D10121802000F0E4
:100BC00032FB0021802000F02EFB22E0704884429E
:100BD00008D10121801500F026FB0021A01500F0AE
:100BE00022FB16E06B48844208D10121401500F039
:100BF0001AFB0021601500F016FB0AE066488442EB
:100C000007D10121001500F00EFB0021201500F096
:100C10000AFB10BDF0B50A4600210023002400BFE6
:100C20003DE0012505FA01F3156805EA03049C423D
:100C300034D105684F000326BE40B54305601579E1
:100C40004E00B5400668354305601579012D02D088
:100C50001579022D16D185684F000326BE40B54395
:100C6000856055794E00B540866835438560456896
:100C700001268E40B5434560456896798E40B6B2F0
:100C800035434560C5684F000326BE40B543C56087
:100C9000D5794E00B540C6683543C560491C10295A
:100CA000BFD3F0BD4FF6FF710160002101714171AA
:100CB0008171C171704708B54FF480320092009A7B
:100CC0000A430092009AC261C161009AC261C2697E
:100CD0000092C269009208BD0246002013690B40D1
:100CE0000BB1012000E0002070470146086980B286
:100CF00070470246002053690B400BB1012000E011
:100D0000002070470146486980B2704701837047F0
:100D1000418370470AB1018300E04183704741611C
:100D2000704742694A4042617047F0B50023002491
:100D30004D07ED0E02FA05F3CE1000F1200555F82F
:100D400026504E07F70E0F26BE40B543CF1000F1D8
:100D5000200646F82750CE1000F1200555F8265001
:100D600045EA0304CE1000F1200545F82640F0BD09
:100D7000000002400004024000080240000C024053
:100D8000001002400014024000180240001C024003
:100D9000002002400024024000280240F948006878
:100DA00040F00100F74908600020F649083108606A
:100DB000F4480068F4490840F2490860F348091D06
:100DC0000860F348EF4984310860F0481038091D85
:100DD0000860EC48006820F48020EA4908600020A0
:100DE000E8490C310860E7498C3108607047002100
:100DF000E44A921C117011460870704710B5014604
:100E00000022002300204A11012A02D1DD4C236870
:100E100008E0022A03D1DB4C7034236802E0D94C8D
:100E20007434236801F01F02012494401C400CB16B
:100E3000012000E0002010BD38B500200090002403
:100E4000002500BF3120FFF7D9FF05460098401C60
:100E500000900098B0F5A04F01D0002DF2D03120C5
:100E6000FFF7CCFF08B1012400E00024204638BD84
:100E700001460020C34A106820F0F80040EAC10093
:100E800010607047C349086070470021BD4A703246
:100E900011701170012802D004280AD104E0012148
:100EA000B84A7032117005E00521B64A70321170EF
:100EB00000E000BF00BF7047B7490860704770B5D9
:100EC000049C41EA82150126C6EB530645EA064515
:100ED000054345EA0465AB4E361D356070BDAD492E
:100EE00008667047820142EA0172A64B84331A6099
:100EF0007047A8498866704710B5830143EA0163CB
:100F000043EA02739F4C8834236010BDA1490867EF
:100F10007047A049C864704702460020994B0833C7
:100F2000186820F0EC6042EA01031843954B08333F
:100F30001860704702460020924B0833186820F072
:100F4000784042EA010318438E4B0833186070471B
:100F5000014600208B4A0832106820F00300084345
:100F60001060704787480830006800F00C00704738
:100F700001460020834A0832106820F0F000084340
:100F800010607047014600207E4A0832106820F445
:100F9000E05008431060704701460020794A08324B
:100FA000106820F4604040EAC10010607047F0B55E
:100FB000002100220024022500260223714F083759
:100FC0003F6807F00C0121B1042905D0082937D169
:100FD00005E0724F076036E0714F076033E0694FFC
:100FE0003F1D3F68C7F38056664F3F1D3F6807F0BF
:100FF0003F036EB16A4FB7FBF3F7DFF888C10CF11E
:10100000040CDCF800C0CCF3881C07FB0CF40CE0EB
:10101000624FB7FBF3F7DFF86CC10CF1040CDCF89E
:1010200000C0CCF3881C07FB0CF4564F3F1D3F68F3
:10103000C7F301477F1C7D00B4FBF5F7076002E0B2
:10104000564F076000BF00BF4E4F08373F6807F09C
:10105000F0010909534F7A5C0768D7404760494F50
:1010600008373F6807F4E051890A4E4F7A5C4768B9
:10107000D7408760434F08373F6807F46041490B0A
:10108000484F7A5C4768D740C760F0BD002100F444
:101090004072B2F5407F0AD13A4A0832116821F411
:1010A000F811414A02401143364A08321160354A6C
:1010B00070321268C0F30B031A43324B70331A605C
:1010C00070473549443908607047334940390860F2
:1010D000704736490860704701460020294A8C3223
:1010E000106820F01F004A1E1043264A8C32106000
:1010F000704701460020234A8C32106820F4F850D3
:101100004A1E40EA02201F4A8C3210607047014696
:1011100000201C4A8C32106820F4401008431060F4
:10112000704701460020174A8C32106820F44000B6
:1011300008431060704701460020124A8C32106844
:1011400020F4403008431060704719490860704728
:1011500039B10C4A3032126802430A4B30331A60FC
:1011600006E0084A303212688243064B30331A6078
:101170007047F9B1034A343212680243014B3433E9
:101180001A601CE000380240FFFFF6EA103000242D
:101190000030002000004742800E47420024F40047
:1011A00000127A0014000020FFFCFF0F5C01474290
:1011B000E01147428F4A126882438E4B1A60704793
:1011C00039B18C4A121D126802438A4B1B1D1A60EA
:1011D00006E0884A121D12688243864B1B1D1A6066
:1011E000704739B1834A0C3212680243814B0C3389
:1011F0001A6006E07F4A0C32126882437D4B0C3342
:101200001A60704739B17B4A103212680243794B39
:1012100010331A6006E0774A103212688243754B29
:1012200010331A60704739B1724A243A1268024387
:10123000704B243B1A6006E06E4A243A12688243DF
:101240006C4B243B1A60704739B16A4A203A1268E5
:101250000243684B203B1A6006E0664A203A126857
:101260008243644B203B1A60704739B1614A1C3A93
:10127000126802435F4B1C3B1A6006E05D4A1C3A51
:10128000126882435B4B1C3B1A60704739B1594A64
:10129000143A12680243574B143B1A6006E0554A51
:1012A000143A12688243534B143B1A60704739B1A9
:1012B000504A103A126802434E4B103B1A6006E047
:1012C0004C4A103A126882434A4B103B1A607047EE
:1012D00039B1484A1C3212680243464B1C331A602B
:1012E00006E0444A1C3212688243424B1C331A60A7
:1012F000704739B13F4A2032126802433D4B2033D8
:101300001A6006E03B4A203212688243394B203390
:101310001A60704739B1374A243212680243354B9C
:1013200024331A6006E0334A243212688243314B78
:1013300024331A60704739B12E4A2C3212680243A6
:101340002C4B2C331A6006E02A4A2C321268824356
:10135000284B2C331A60704739B1264A3032126854
:101360000243244B30331A6006E0224A30321268BE
:101370008243204B30331A607047012808D11D4941
:101380003C31096841F008011A4A3C32116007E01B
:1013900018493C31096821F00801164A3C321160B5
:1013A000704739B1134A273A12780243114B273B51
:1013B0001A7006E00F4A273A127882430D4B273BFA
:1013C0001A7070470B484030006840F0807009493F
:1013D00040310860704701460020064A283A1268EA
:1013E0000A400AB1012000E0002070470149263977
:1013F000087070473438024010B50446FE488442F5
:1014000008D101210846FFF752FF00210120FFF714
:101410004EFF9DE0B4F1804F08D101210846FFF74F
:1014200035FF00210120FFF731FF91E0F3488442AE
:1014300008D101210220FFF729FF00210220FFF738
:1014400025FF85E0EE48844208D101210420FFF702
:101450001DFF00210420FFF719FF79E0E9488442CD
:1014600008D101210820FFF711FF00210820FFF714
:101470000DFF6DE0E448844208D101211020FFF700
:1014800005FF00211020FFF701FF61E0DF488442E3
:1014900008D101212020FFF7F9FE00212020FFF7CD
:1014A000F5FE55E0DA48844208D101210220FFF719
:1014B000FEFE00210220FFF7FAFE49E0D5488442F3
:1014C00009D101210804FFF7F2FE00214FF480301A
:1014D000FFF7EDFE3CE0D048844209D101214804E9
:1014E000FFF7E5FE00214FF40030FFF7E0FE2FE0AC
:1014F000CA48844209D101218804FFF7D8FE00219F
:101500004FF48020FFF7D3FE22E0C548844208D183
:1015100001214020FFF7BAFE00214020FFF7B6FE70
:1015200016E0C048844208D101218020FFF7AEFEBA
:1015300000218020FFF7AAFE0AE0BB48844207D1C1
:1015400001218015FFF7A2FE0021A015FFF79EFEE6
:1015500010BD00220288A84B98420ED0AC4B984296
:101560000BD0B0F1804F08D0A44B984205D0A44BCB
:10157000984202D0A34B984204D14FF68F731A4081
:101580004B881A43A04B984207D0A04B984204D0F6
:101590004FF6FF431A400B891A4302804B68C3621F
:1015A0000B880385944B984202D0994B984201D105
:1015B0008B7A03860123838270474FF0FF314160AD
:1015C0000021018001814180817270470185828202
:1015D00070470A46002101884FF68F731940114366
:1015E0000180704741627047C16270470146486A96
:1015F00070470146088D704721B1028842F002020F
:10160000028004E002884FF6FD731A4002807047A2
:1016100021B1028842F00402028004E002884FF601
:10162000FB731A400280704721B1028842F08002A9
:10163000028004E002884FF67F731A4002807047F0
:1016400002884FF6F7731A40028002880A4302802C
:10165000704702884FF6FF431A40028002880A430F
:101660000280704721B1028842F00102028004E04A
:1016700002884FF6FE731A400280704770B500244E
:1016800000220023058C4FF6FE7635400584028C3F
:101690008388048B4FF68F752C40B51E2C400D8827
:1016A0002C43751E2A408D892A434D882A43524D6A
:1016B000A84202D0564DA84213D14FF6F7752A40E2
:1016C000CD892A434FF6FB752A408D882A434FF671
:1016D000FF652B404FF6FF552B400D8A2B434D8A5B
:1016E0002B43838004838D684563028470BD70B58D
:1016F000002400220023058C4FF6EF763540058448
:10170000028C8388048B48F6FF752C404FF6FF450A
:101710002C400D884FF6FF7606EA05252C434FF640
:10172000DF752A408D8906EA05152A434D8806EAA9
:1017300005152A43304DA84202D0354DA8421DD18F
:101740004FF67F752A40CD894FF6FF7606EA0515DC
:101750002A434FF6BF752A408D8806EA05152A43AD
:101760004FF6FF352B404FF2FF752B400D8A06EAEE
:1017700085052B434D8A06EA85052B438380048328
:101780008D688563028470BD70B50024002200233B
:10179000058C4FF6FF6635400584028C8388848B68
:1017A0004FF68F752C404FF6FC752C400D882C435E
:1017B0004FF6FF552A408D894FF6FF7606EA05253C
:1017C0002A434D8806EA05252A430B4DA84202D03C
:1017D0000F4DA84238D14FF2FF752A40CD894FF600
:1017E000FF7606EA05252A434FF6FF352A408D8805
:1017F00006EA05252A4319E00000014000040040E4
:1018000000080040000C00400010004000140040A0
:1018100000040140004001400044014000480140F4
:1018200000180040001C0040002000404EF6FF75EC
:101830002B404DF6FF752B400D8A06EA05152B430C
:101840004D8A06EA05152B43838084838D68C56322
:10185000028470BD70B5002200230024058C4EF672
:10186000FF7635400584038C8488828B48F6FF75AB
:101870002A404FF6FF452A400D884FF6FF7606EACC
:1018800005252A434DF6FF752B408D8906EA05355F
:101890002B434D8806EA05352B43FE4DA84202D066
:1018A000FD4DA84208D14BF6FF752C400D8A4FF62E
:1018B000FF7606EA85152C43848082838D68056453
:1018C000038470BD0021018041808180816081811D
:1018D000C18101824182704770B503460020002417
:1018E0001846183001258D40ACB21D8CA5431D84CF
:1018F00009B108290AD100EB610005684FF68F761F
:10190000354005600568154305600FE00D1FC5F300
:101910004E052844056848F6FF76354005600568A1
:101920004FF6FF7606EA02263543056070BD416337
:10193000704781637047C1637047016470470A460E
:101940000021018B4FF68F731940114301837047BB
:101950000A460021018B48F6FF7319404FF6FF73CA
:1019600003EA02231943018370470A460021818B51
:101970004FF68F7319401143818370470A46002147
:10198000818B48F6FF7319404FF6FF7303EA022379
:101990001943818370470A460021018B4FF6F77384
:1019A00019401143018370470A460021018B4FF211
:1019B000FF7319404FF6FF7303EA022319430183B3
:1019C00070470A460021818B4FF6F7731940114387
:1019D000818370470A460021818B4FF2FF731940C3
:1019E0004FF6FF7303EA02231943818370470A46C7
:1019F0000021018B4FF6FB7319401143018370479F
:101A00000A460021018B4FF6FF3319404FF6FF7352
:101A100003EA02231943018370470A460021818BA0
:101A20004FF6FB7319401143818370470A4600212A
:101A3000818B4FF6FF3319404FF6FF7303EA022301
:101A40001943818370470A460021018B4FF67F734B
:101A500019401143018370470A460021018BC1F3ED
:101A60000E014FF6FF7303EA022319430183704707
:101A70000A460021818B4FF67F7319401143818301
:101A800070470A460021818BC1F30E014FF6FF73A8
:101A900003EA02231943818370470A460021018C1F
:101AA0004FF6FD7319401143018470470A46002127
:101AB000018C4FF6F77319401143018470470A46B1
:101AC0000021018C4FF6DF7319404FF6FF7303EAD4
:101AD00002131943018470470A460021018C4FF616
:101AE0007F7319404FF6FF7303EA02131943018411
:101AF00070470A460021018C4FF6FF5319404FF6FC
:101B0000FF7303EA02231943018470470A46002148
:101B1000018C4FF2FF7319404FF6FF7303EA022363
:101B20001943018470470A460021018C4DF6FF736A
:101B300019404FF6FF7303EA0233194301847047DB
:101B400030B5002301248C40A3B2048C9C43048450
:101B5000048C02FA01F5ADB22C43048430BD30B5DB
:101B6000002304248C40A3B2048C9C430484048C82
:101B700002FA01F5ADB22C43048430BD828B4FF2E2
:101B8000FF331A408283828B4FF6FF7303EA0123EF
:101B90001A4382837047F0B50C4615460021002297
:101BA0000026078C4EF6FF7C07EA0C070784818B22
:101BB000028C4FF6FF7707EA043640F6FF473940BC
:101BC0004FF6FF7707EA052739434FF6FF7707EA15
:101BD0000337394345F6FF773A4046F480573A4396
:101BE00081830284F0BD828B4FF6F3731A408283A7
:101BF000828B0A4382837047F0B50C46154600215C
:101C000000220026078C4FF6FF6C07EA0C070784BA
:101C1000818B028C4FF6FF7707EA04264FF60C778C
:101C200039404FF6FF7707EA03172F4339434FF246
:101C3000FF573A4046F480773A4381830284F0BDEF
:101C4000028B4FF2FF331A400283028B4FF6FF7371
:101C500003EA01231A4302837047F0B50C46154688
:101C6000002100220026078C4FF6EF7C07EA0C07C4
:101C70000784018B028C4FF6FF7707EA041640F6C3
:101C8000FF4739404FF6FF7707EA033739434FF6EE
:101C9000FF7703E0000001400004014007EA052748
:101CA00039434FF65F773A4046F010073A430183D5
:101CB0000284F0BD028B4FF6F3731A400283028B4D
:101CC0000A4302837047F0B50C46154600210022F6
:101CD000068C4FF6FE773E400684018B028C4FF651
:101CE0000C7631407E1C06EA03162E4331434FF634
:101CF000F576324044F00106324301830284F0BDA0
:101D000070B505460C46208850B92389A2886188A1
:101D10002846FFF7D8FFE1882846FFF7CBFF25E0EC
:101D2000208804280AD12389A28861882846FFF7E1
:101D300094FFE1882846FFF783FF17E020880828F2
:101D40000AD12389A28861882846FFF755FFE188D8
:101D50002846FFF748FF09E02389A28861882846C2
:101D6000FFF719FFE1882846FFF708FF70BD002143
:101D700001804180012181800021C1800181704763
:101D80002DE9F04105460C4600260127608808B978
:101D9000022600E00026A088012801D1022700E0E9
:101DA00001272088A0B92389A28861882846FFF7E7
:101DB0008AFFE1882846FFF77DFF23893A463146AE
:101DC0002846FFF74AFFE1882846FFF739FF13E06E
:101DD0002389A28861882846FFF73FFFE1882846CB
:101DE000FFF72EFF23893A4631462846FFF76BFF5F
:101DF000E1882846FFF75EFFBDE8F0810146486BA9
:101E000070470146886B70470146C86B70470146B2
:101E1000086C70470A884B881A438B881A43CB8812
:101E20001A430B891A434B891A438B891A43A0F82A
:101E3000442070470021018041808180C180018160
:101E400041818181704731B1B0F8442042F40042B1
:101E5000A0F8442005E0B0F84420C2F30E02A0F838
:101E60004420704721B1828842F00402828004E05D
:101E700082884FF6FB731A408280704721B18288B6
:101E800042F00102828004E082884FF6FE731A401D
:101E9000828070471AB183890B43838102E0838972
:101EA0008B43838170478182704702460020138AEA
:101EB0000B400BB1012000E000207047CA430282B2
:101EC000704730B50246002000230024158A05EA39
:101ED0000103958905EA010413B10CB1012000E06A
:101EE000002030BDCA430282704741EA0203A0F8D5
:101EF000483070471AB183890B43838102E083899C
:101F00008B438381704721B1828842F0080282802E
:101F100004E082884FF6F7731A4082807047018987
:101F20004FF6F8721140018170470A46002101897D
:101F30004FF68F73194011430181704730B5044645
:101F40000D4629462046FFF7F0FF208940F00700A4
:101F5000208130BD2DE9F04104460D4616461F464E
:101F6000602D06D13B46012231462046FFF775FE23
:101F700005E03B46012231462046FFF7A4FE2946F4
:101F80002046FFF7D2FF208940F007002081BDE8FE
:101F9000F08130B50C4600210189C9B24FF6FF75BA
:101FA00005EA0325154325432943018130BD2DE969
:101FB000F04105460E4617469846002443463A46E9
:101FC00031462846FFF7E5FF2C894FF6F8700440AC
:101FD00044F007044FF68F70044044F070042C81E5
:101FE000BDE8F081F0B504460D4616461F463B4657
:101FF000324629462046FFF7CCFF208940F4804036
:102000002081F0BD82884FF68F731A4082808288CB
:102010000A438280704702894FF6F8731A400281A2
:1020200002890A430281704702894FF67F731A4082
:10203000028102890A4302817047F0B50C461546B9
:102040001E460021002200230189028B038C4FF6DB
:10205000F877394021434FF6FC473A4040F20117E8
:102060003A434FF6DD773B404FF6FF7707EA061716
:102070002F433B43018102830384F0BD21B1828859
:1020800042F08002828004E082884FF67F731A401B
:1020900082807047A0F850107047000010B50446C9
:1020A000FA48844208D101211020FFF700F90021ED
:1020B0001020FFF7FCF857E0F548844209D10121D0
:1020C0004804FFF7E3F800214FF40030FFF7DEF893
:1020D0004AE0F048844209D101218804FFF7D6F88C
:1020E00000214FF48020FFF7D1F83DE0EA48844218
:1020F00009D10121C804FFF7C9F800214FF40020DD
:10210000FFF7C4F830E0E548844209D10121080511
:10211000FFF7BCF800214FF48010FFF7B7F823E079
:10212000DF48844208D101212020FFF7C0F80021B8
:102130002020FFF7BCF817E0DA48844209D10121DA
:102140008807FFF7A3F800214FF08040FFF79EF8C3
:102150000AE0D548844207D101214005FFF796F8EF
:1021600000216005FFF792F810BD2DE9FF470546F5
:102170000E460024A14600BFA046B08900B100BFB2
:102180002C8A24F44054F08804432C82AC8941F218
:102190000C608443B0883189084371890843044343
:1021A000AC81AC8A24F44074B0890443AC826846A4
:1021B000FEF7FDFEB548854202D0B948854202D1FE
:1021C000DDF80C9001E0DDF80890A88900F40040EB
:1021D00040B109EBC90000EB091031684900B0FBC0
:1021E000F1F707E009EBC90000EB0910316889003D
:1021F000B0FBF1F76420B7FBF0F004012009642183
:1022000001FB1078A88900F4004040B1322000EBB7
:10221000C800B0FBF1F000F00700044308E03220F2
:1022200000EB08106421B0FBF1F000F00F00044354
:102230002C81BDE8FF874FF4165101600021818099
:10224000C18001810C21418100218181704710B53D
:1022500002460020108A20F470600B884C882343CB
:102260008C882343CC8823431843108210BD00215F
:10227000018041808180C180704721B1828942F410
:102280000052828104E082894DF6FF731A408281F8
:102290007047028B02F47F420283028B0A4302835F
:1022A000704721B1828942F40042828103E0828931
:1022B000C2F30E028281704721B1828A42F4006229
:1022C000828204E0828A4FF2FF731A408282704752
:1022D000C1F308028280704701468888C0F3080075
:1022E0007047028A4FF6F0731A400282028A0A434C
:1022F0000282704721B1828942F00202828104E0A9
:1023000082894FF6FD731A408281704782894FF2AD
:10231000FF731A40828182890A4382817047028A50
:102320004FF6DF731A400282028A0A430282704724
:1023300021B1028A42F48042028204E0028A4BF612
:10234000FF731A4002827047818941F00101818147
:10235000704721B1828A42F00802828204E0828AB8
:102360004FF6F7731A4082827047028BD2B2028313
:10237000028B42EA01220283704721B1828A42F035
:102380002002828204E0828A4FF6DF731A40828242
:10239000704721B1828A42F01002828204E0828A70
:1023A0004FF6EF731A4082827047828A4FF6FB73B2
:1023B0001A408282828A0A438282704721B1828ACD
:1023C00042F00202828204E0828A4FF6FD731A40D4
:1023D000828270471AB1838A0B43838202E0838A28
:1023E0008B4383827047F0B5034600240026002506
:1023F000002040F66A17B94200D100BF1846C1F369
:10240000421401F01F06012707FA06F5012C01D13D
:102410000C3004E0022C01D1103000E014301AB16D
:1024200007682F43076002E00768AF430760F0BD0D
:1024300002460020B1F5007F00D100BF13880B4099
:102440000BB1012000E00020704701F40072B2F5EA
:10245000007F00D100BFCA430280704770B50246BA
:10246000002400230025002040F66A16B14200D166
:1024700000BFC1F3421501F01F03012606FA03F362
:10248000012D13D19689334017E000000010014060
:102490000044004000480040004C00400050004014
:1024A0000014014000780040007C0040022D02D161
:1024B000168A334001E0968A33400C12012606FA50
:1024C00004F41688344013B10CB1012000E0002060
:1024D00070BD10B50022002340F66A14A14200D15D
:1024E00000BF0A1201249440A3B2DC43048010BD53
:1024F00010B504466FF00400FEF704F8E11704EB92
:102500005171C1F3C701394A11701046007800EBD0
:102510004001C1EBC0104FF6FF7101EAC000344921
:10252000088010BD0146314A12784A434FF0E0233B
:102530005A6100229A611A46126942F001021A6138
:1025400000BF4FF0E022106900F001021AB100F460
:102550008032002AF5D04FF0E022126922F0010209
:102560004FF0E0231A6100229A6170470146204A29
:1025700012884A434FF0E0235A6100229A611A46BA
:10258000126942F001021A6100BF4FF0E0221069A7
:1025900000F001021AB100F48032002AF5D04FF0A9
:1025A000E022126922F001024FF0E0231A610022BA
:1025B0009A61704770B504464FF4077094FBF0F0D1
:1025C000C6B24FF4077094FBF0F100FB114085B2E6
:1025D00005E04FF40770FFF7C9FF701EC6B2002E6A
:1025E000F7D115B12846FFF7C1FF70BD24000020C8
:1025F0002600002010B5A820FFF77AFF4FF4164000
:1026000000F027F84FF4E13000F0E4F800F002FAAF
:1026100000F010FF00F0B8FA01F0C0FE02F00EF872
:1026200002F0DDFE902002F063F9902002F0AFF995
:1026300010BD0000014600BF704700BF5C4A128811
:1026400002F04002002AF9D0C2B2594B1B1D1A8079
:10265000704710B588B0044601210846FEF778FDA2
:1026600001211020FEF7CEFD072209215148FEF777
:102670005CFB07220A214F48FEF757FB4FF4C0606E
:10268000069002208DF81C008DF81D0000208DF8AA
:102690001E0001208DF81F0006A94648FEF7BAFA71
:1026A00002940020ADF80C00ADF80E00ADF810005B
:1026B000ADF814000C20ADF8120002A93E48FFF757
:1026C00054FD01213C48FFF7D8FD40213A48FFF76F
:1026D000BCFE012240F225513748FFF784FE252039
:1026E0008DF8040003208DF805008DF80600012008
:1026F0008DF8070001A8FDF7B8FE08B010BD10B5B1
:1027000040F225512C48FFF7A9FE002833D02A4873
:10271000FFF7E2FD2949087040F225512648FFF7EE
:10272000D8FE26480078FF2802D1012024490870ED
:1027300023480078F8B1214800782249224A1278CB
:10274000885421480078401C1F49087008460078CA
:10275000582810DB002008701A4A92F8481092F8A6
:10276000470003F004F800201549087001201749BC
:1027700008701749087010BD10B5044621460E4870
:10278000FFF7A6FD00BF80210B48FFF751FE002890
:10279000F9D010BD70B505460E46002404E0285D52
:1027A000FFF7EAFF601C84B2B442F8DB70BD0000A2
:1027B00000480040000002400010014031000020AD
:1027C0003000002048010020320000202E000020B0
:1027D0002F00002010B586B0044601210220FEF72C
:1027E000B7FC01218804FEF7FCFC07220A212648D9
:1027F000FEF79BFA07220B212348FEF796FA4FF4C7
:102800004060049002208DF814008DF8150000201F
:102810008DF8160001208DF8170004A91A48FEF75C
:10282000F9F900940020ADF80400ADF80600ADF809
:102830000800ADF80C000C20ADF80A0069461348FA
:10284000FFF793FC01211148FFF717FD06B010BDFB
:1028500010B5044621460D48FFF73AFD00BF802120
:102860000A48FFF7E5FD0028F9D010BD70B5054610
:102870000E46002404E0285DFFF7EAFF601C84B2E6
:10288000B442F8DB70BD0000000402400048004084
:102890007FB505460C4601210220FEF7A2FC0295F9
:1028A000ADF804400020ADF80600ADF80C0001A919
:1028B0005448FEF74EFE012211465248FFF7EAFA4D
:1028C00001215048FEF7CEFE1D208DF800000120AA
:1028D0008DF8010003208DF8020001208DF803001F
:1028E0006846FDF7C2FD7FBD10B501214548FFF7E1
:1028F000E8FA012801D14449C87001214148FFF795
:10290000F1FA10BD7FB505460C4601210846FEF7D9
:1029100068FC4FF08040FFF702FB0020ADF80C0090
:10292000ADF806000295ADF804408DF80E0001A93F
:102930004FF08040FEF70DFE01218807FFF7BEFA39
:10294000012211469007FFF7A5FA4FF4A060FDF7AA
:1029500087FD1C208DF8000001208DF80300022067
:102960008DF8010001208DF802006846FDF77DFD1D
:1029700001218807FEF776FE7FBD10B5012188078B
:10298000FFF79FFA01283CD101218007FFF7AAFA3F
:102990001D480079401C1C49087108460079102820
:1029A0001BDB002008710120087008464079401C9C
:1029B00048710846407905280FDB00204871012046
:1029C000487008468079401C887108468079042840
:1029D00003DB0020887102F090FD0C48007860B1A4
:1029E00040210B48FEF785F9C0F10100C4B2224630
:1029F00040210748FEF78EF903E040210448FEF726
:102A000087F910BD0004004035000020B00100200F
:102A1000001002401CB501211120FEF799FB18207F
:102A2000009000208DF8040003208DF8050001209F
:102A30008DF8070069464D48FEF7ECF8012000903C
:102A400002208DF8070069464948FEF7E3F81CBDEF
:102A500010B5044614B10120464908704548007875
:102A600058B310214148FEF737F950B108213F48CB
:102A7000FEF732F928B101213D48FEF72DF9012872
:102A80001BD10520FFF796FD00203A490870102160
:102A90003648FEF721F908B9012010BD0821334856
:102AA000FEF71AF908B90220F7E701213048FEF7CE
:102AB00013F9012815D10320EFE710212B48FEF769
:102AC0000BF901280DD108212848FEF705F9012846
:102AD00007D101212648FEF7FFF810B9012025494A
:102AE00008700020D9E708B50020FFF7B1FF2249A0
:102AF000087008460078002837D00846007801287A
:102B000004D002280ED003282DD11CE08A20FFF724
:102B100033FE01201949087000231A46022102F0F1
:102B200073FC21E08820FFF727FE0020134908707E
:102B3000134908701349087000231A460221012026
:102B400002F062FC10E04FF6FF70CE237822BE2127
:102B50000090282000F050FE00231A46194601205C
:102B600002F052FC00E000BF00BF08BD00100240B0
:102B7000000002403D0000203E0000203C000020FC
:102B80006C0000202E0000201CB501210846FEF735
:102B9000DFFAC020009001208DF8040000208DF89D
:102BA000060003208DF8050001208DF80700694616
:102BB0000348FEF72FF8C0210148FEF7A7F81CBD17
:102BC0000000024001B5BDF800000090BDF8000013
:102BD000FB49088008BD01B5BDF800000090BDF8B4
:102BE0000000F749891C088008BD08B5F448801C1E
:102BF00000880090BDF8000008BD03B5BDF80000D6
:102C0000EF490880BDF80400891C08800CBD01B59F
:102C1000BDF80000FFF7D6FF0520FFF783FCFFF7A4
:102C2000E4FF08BDE7480089E54908807047E449AA
:102C3000891C0880704730B5014601F01F04C1F3BC
:102C40004513CA0AE50205EB43151544A8B230BD89
:102C500000BF011EA0F10102D0B2FAD1704730B519
:102C600004460D46D748808849F2413188420BD04E
:102C7000D448808848F25251884205D0D148808893
:102C800045F21031884214D1CE494889FFF79AFFA6
:102C90002012FFF7A0FFE0B2FFF79DFFC949888926
:102CA000FFF790FF2812FFF796FFE8B2FFF793FFB8
:102CB0005DE0C448808846F6040188421DD1C148C1
:102CC0008079012804D1BF480088401E001B84B2CF
:102CD000BC494889FFF776FF2012FFF77CFFE0B27E
:102CE000FFF779FFB7498889FFF76CFF2812FFF7D4
:102CF00072FFE8B2FFF76FFF39E0B248808845F213
:102D00001051884220D1AF494889FFF75BFF20125C
:102D1000FFF761FFAB494989491C88B2FFF752FFB1
:102D2000E0B2FFF758FFA7498889FFF74BFF281249
:102D3000FFF751FFA3498989491C88B2FFF742FF79
:102D4000E8B2FFF748FF12E09E488079012804D1DD
:102D50009C480088401E001B84B29A49488921463D
:102D6000FFF74BFF974988892946FFF746FF30BD9B
:102D70003EB504460D460020029001900090914817
:102D80000088A04203DD8F484088A84201DC002073
:102D90003EBD29462046FFF762FF8A48808849F2F7
:102DA000413188420BD08748808846F6040188422A
:102DB00005D08448808845F21031884203D12E2006
:102DC000FFF700FF0DE07F48808845F210518842F0
:102DD00004D14FF43850FFF7F5FE02E02220FFF750
:102DE000F1FE7848808849F22031884202D10220E1
:102DF000FFF72EFFFFF7F9FE0220FFF729FFFFF78D
:102E0000F4FE02906F48808849F2413188420BD02D
:102E10006C48808845F21031884205D06948808826
:102E200045F21051884210D10220FFF711FFFFF741
:102E3000DCFE0090BDF80800C0B20190BDF80400AF
:102E40004FF6FF7101EA002001905E48808849F248
:102E50002531884216D05B48808844F2355188423B
:102E600010D058488088091F88420BD05548808868
:102E70004BF20551884205D0524880884CF20551EA
:102E8000884202D1BDF8080082E74E48808849F2A6
:102E9000413188420BD04B48808845F2103188423E
:102EA00005D04848808845F2105188420DD1BDF8C0
:102EB0000800C012C002BDF80410891240EA411097
:102EC000BDF8001040EAE12062E7BDF80800FFF716
:102ED000B2FE5DE700B53B48808849F24131884247
:102EE0000BD03848808846F60401884205D0354822
:102EF000808845F21031884203D12920FFF762FE15
:102F00000FE03048808845F21051884204D14FF4D8
:102F10002450FFF757FE04E040F273110720FFF73B
:102F20006CFE00BD00B52748808849F241318842D7
:102F30000BD02448808846F60401884205D02148F9
:102F4000808845F21031884203D12820FFF73AFEED
:102F50000EE01C48808845F21051884204D14FF49D
:102F60002050FFF72FFE03E000210720FFF745FE6A
:102F700000BD2DE9304105460024A0461148808857
:102F800049F24131884217D00E48808846F6040144
:102F9000884211D00B48808848F2525188420BD0A9
:102FA0000848808845F21031884205D0054880885D
:102FB00045F2105188424CD1082D22D204E0000085
:102FC000FEFF0760A0010020DFE805F00406090C01
:102FD0000F12151800BF14E044F0800411E044F013
:102FE00040040EE044F0C0040BE044F0200408E08C
:102FF00044F0600405E044F0A00402E044F0E00482
:1030000000BF00BFFE494889FFF7DCFD0020FFF745
:10301000E2FD0020FFF7DFFD711EC1F30F20FFF777
:10302000DAFD711EC8B2FFF7D6FDF5498889FFF7B2
:10303000C9FD0020FFF7CFFD0020FFF7CCFD791E72
:10304000C1F30F20FFF7C7FD791EC8B2FFF7C3FD1C
:1030500033E0082D1CD2DFE805F004070A0D0F123B
:10306000151844F0300413E044F0100410E044F06C
:1030700020040DE000BF0BE044F0380408E044F009
:10308000280405E044F0180402E044F0080400BFFE
:1030900000BFDB48808848F68911884205D14FF08F
:1030A000110846F24000044303E04FF0030844F4E3
:1030B000805421464046FFF7A0FDBDE8308130B581
:1030C00004460D4629462046FFF7C9FDFFF7AAFD35
:1030D000CC480088CC49088030BD70B504460D4608
:1030E0001646C748808849F2413188420BD0C4480F
:1030F000808848F25251884205D0C148808845F204
:103100001031884214D1BE494889FFF75BFD201277
:10311000FFF761FDE0B2FFF75EFDB9498889FFF76F
:1031200051FD2812FFF757FDE8B2FFF754FD5DE0AF
:10313000B348808845F21051884220D1B04948896F
:10314000FFF740FD2012FFF746FDAD494989491CB4
:1031500088B2FFF737FDE0B2FFF73DFDA849888947
:10316000FFF730FD2812FFF736FDA5498989491C74
:1031700088B2FFF727FDE8B2FFF72DFD36E0A04843
:10318000808846F6040188421DD19D488079012837
:1031900004D19B480088401E001B84B2984948898E
:1031A000FFF710FD2012FFF716FDE0B2FFF713FD49
:1031B00093498889FFF706FD2812FFF70CFDE8B256
:1031C000FFF709FD12E08E488079012804D18C4870
:1031D0000088401E001B84B2894948892146FFF7B8
:1031E0000CFD874988892946FFF707FD8448008937
:1031F0008549891E0880881C068070BD10B504466C
:1032000074B900207E498871F02008804FF4A070C6
:1032100048802C2008812A2048812B2088810DE0BD
:103220000120774988714FF4A0700880F020488011
:103230002C2008812A2048812B2088810020FFF73C
:1032400098FE10BD2DE9FF4F04460D4616461F4659
:10325000A019401E86B2E819401E87B268488088CF
:1032600049F2413188420BD06548808845F21031DF
:10327000884205D06248808846F60401884220D101
:103280005F494889FFF79EFC2012FFF7A4FCE0B2DB
:10329000FFF7A1FC3012FFF79EFCF0B2FFF79BFC9A
:1032A00057498889FFF78EFC2812FFF794FCE8B293
:1032B000FFF791FC3812FFF78EFCF8B2FFF78BFC9A
:1032C0007DE04F48808845F21051884244D14C49F6
:1032D0004889FFF777FC2012FFF77DFC48494989B0
:1032E000491C88B2FFF76EFCE0B2FFF774FC44495A
:1032F0004989891C88B2FFF765FC3012FFF76BFC27
:103300003F494989C91C88B2FFF75CFCF0B2FFF75E
:1033100062FC3B498889FFF755FC2812FFF75BFCEC
:1033200037498989491C88B2FFF74CFCE8B2FFF79E
:1033300052FC33498989891C88B2FFF743FC381253
:10334000FFF749FC2E498989C91C88B2FFF73AFC6E
:10335000F8B2FFF740FC32E02948807901280ED10D
:10336000A846B94626480088801B401E1FFA80FAEE
:1033700023480088001B401E1FFA80FB03E0A04684
:10338000B146AA46BB4650200390512002905220DD
:1033900001905320009041460398FFF72EFC4946C8
:1033A0000298FFF72AFC51460198FFF726FC594680
:1033B0000098FFF722FC29462046FFF750FCBDE8A5
:1033C000FF8F70B5044600260D48058840884543A8
:1033D0000B48808846F6040188421DD10848807950
:1033E000012819D10020064988712A2048812B2004
:1033F000888100210846FFF732FC0120004905E0E2
:10340000A0010020400000200000086088712B20EF
:1034100048812A20888103E000210846FFF71FFC2D
:10342000FFF700FC002602E0FE480480761CAE4256
:10343000FAD370BD00B5A1B00020209001211A2060
:10344000FDF786FE01210846FDF7BAFE02201E9018
:1034500001208DF87C0000208DF87E0002208DF880
:103460007D0001208DF87F001EA9EF48FDF7D2FBFB
:103470004EF2B3701E9002208DF87C0000208DF873
:103480007E0003208DF87D0001208DF87F001EA9AD
:10349000E648FDF7BFFB4FF680701E9002208DF8C6
:1034A0007C0000208DF87E0003208DF87D00012037
:1034B0008DF87F001EA9DE48FDF7ACFB0C22002131
:1034C000DA48FDF732FC0C220121D848FDF72DFC2B
:1034D0000C220421D548FDF728FC0C220521D348F5
:1034E000FDF723FC0C220721D048FDF71EFC0C221F
:1034F0000821CE48FDF719FC0C220921CB48FDF725
:1035000014FC0C220A21C948FDF70FFC0C220D21E6
:10351000C648FDF70AFC0C220E21C448FDF705FC45
:103520000C220F21C148FDF700FC0C220721C048E6
:10353000FDF7FBFB0C220821BD48FDF7F6FB0C2232
:103540000921BB48FDF7F1FB0C220A21B848FDF721
:10355000ECFB0C220B21B648FDF7E7FB0C221146D1
:10356000B348FDF7E2FB0C220D21B148FDF7DDFB6E
:103570000C220E21AE48FDF7D8FB0C220F21AC48DF
:10358000FDF7D3FB0F200890002009903C200A9003
:1035900000200B900C900D900E90092001900020BF
:1035A0000290082003900020049005900690079058
:1035B0000F901090119010201290002013901590F1
:1035C0001490169017904FF4805018900020199086
:1035D0004FF480401A9000201B9008A81C9001A86E
:1035E0001D900FA8FCF7C7FF01210020FDF74EF842
:1035F0000420FFF7E7FAFFF7F8FA8E498880FFF713
:10360000F4FA8C498880FFF7F0FA8A4988800846E6
:1036100080884FF6FF7101EA002086498880FFF715
:10362000E4FA84498988084382498880824800688E
:1036300020F00F004FF02041C1F81C010846D0F8DF
:103640001C0120F47060C1F81C010846D0F81C0170
:1036500040F00300C1F81C010846D0F81C0140F4FA
:103660000070C1F81C017348818874A002F08EFCC0
:1036700048F252506F4988801120FFF7A3FA782052
:10368000FEF798FF3620FFF79DFA0020FFF7A3FA18
:103690003A20FFF797FA0520FFF79DFAB220FFF7CF
:1036A00091FA0C20FFF797FA0C20FFF794FA00200C
:1036B000FFF791FA3320FFF78EFA3320FFF78BFAEA
:1036C000B720FFF77FFA3520FFF785FABB20FFF719
:1036D00079FA2820FFF77FFAC020FFF773FA2C2031
:1036E000FFF779FAC220FFF76DFA0120FFF773FAAE
:1036F000C320FFF767FA0B20FFF76DFAC420FFF72E
:1037000061FA2020FFF767FAC620FFF75BFA0F2067
:10371000FFF761FAD020FFF755FAA420FFF75BFA14
:10372000A120FFF758FAE020FFF74CFAD020FFF76E
:1037300052FA0120FFF74FFA0820FFF74CFA0F204A
:10374000FFF749FA1120FFF746FA2A20FFF743FA5C
:103750003620FFF740FA5520FFF73DFA4420FFF7E7
:103760003AFA3A20FFF737FA0B20FFF734FA06202F
:10377000FFF731FA1120FFF72EFA2020FFF72BFA7E
:10378000E120FFF71FFAD020FFF725FA0220FFF70C
:1037900022FA0720FFF71FFA0A20FFF71CFA0B2076
:1037A000FFF719FA1820FFF716FA3420FFF713FA7B
:1037B0004320FFF710FA4A20FFF70DFA2B20FFF7FE
:1037C0000AFA1B20FFF707FA1C20FFF704FA222051
:1037D000FFF701FA1F20FFF7FEF92920FFF7F2F9A2
:1037E0000020FFF70BFD0120184908604FF6FF701D
:1037F000FFF7E7FD21B000BD2DE9FC4F05460E4661
:1038000017469846DDF82C900020019009488088E2
:1038100046F60401884240D10648807901283CD10F
:10382000AB4615E00000086000040240000C0240B6
:1038300000100240A00100201C0100A0204C4344C5
:103840002049443A25780D0A000000008482404255
:103850003546FB480088C01B401E86B24746F848E4
:103860000088A0EB0B00401E1FFA80F80020F449EE
:1038700088712A2048812B20888143463A46314668
:103880002846CDF80090FFF7B7FF0120EC4988717A
:103890002B2048812A2088811CE0781B401C80B2A4
:1038A0000190344614E021462846FFF7D8F9FFF787
:1038B000B9F94FF0000A06E0E248A0F800900AF1DA
:1038C00001001FFA80FA01988245F5DB601C84B282
:1038D0004445E8DDBDE8FC8F2DE9F84F07460D466D
:1038E00090469946DDF828B0A8EB0700401C1FFA67
:1038F00080FAA9EB0500401C80B20090002414E07F
:10390000281981B23846FFF7AAF9FFF78BF900268C
:1039100007E004FB0A603BF81000CA490880701CED
:1039200086B25645F5DB601C84B200988442E7DB22
:10393000BDE8F88F2DE9FF4F84B081468A4600200C
:10394000039002900698A0EB09050798A0EB0A06E1
:10395000CDF80490CDF800A0002D01DD012705E091
:103960000DB9002702E04FF0FF376D42002E02DD57
:103970004FF0010806E016B94FF0000802E04FF0E2
:10398000FF387642B54201DD2C4600E034464FF068
:10399000000B21E0009A91B2019A90B2FFF78FFBE1
:1039A0000398284403900298304402900398A04260
:1039B00005DD0398001B039001983844019002989C
:1039C000A04205DD0298001B029000984044009040
:1039D0000BF101001FFA80FB601C8345DADD08B0A3
:1039E000BDE8F08FF0B504460D4616461F462B463F
:1039F000324629462046FFF79DFF3B462246294690
:103A00002046FFF797FF3B46324639462046FFF7F0
:103A100091FF3B46324629463046FFF78BFFF0BD0B
:103A20002DE9F04306460F46904600244546032004
:103A3000A0EB48093CE07A1B91B2321990B2FFF733
:103A40003EFB3A1B91B2721990B2FFF738FB3A195C
:103A500091B2721990B2FFF732FB7A1991B2321912
:103A600090B2FFF72CFB7A1991B2321B90B2FFF79C
:103A700026FB3A1991B2721B90B2FFF720FB7A1B1A
:103A800091B2321B90B2FFF71AFB3A1B91B2721B34
:103A900090B2FFF714FB641CB9F1000F03DAA00029
:103AA000801D814404E0601B80000A3081446D1E4B
:103AB000AC42C0DDBDE8F0832DE9F84F80460E46EC
:103AC00017461C46B3462046E31704EB5373DB103E
:103AD00021464FEAE47C04EB5C7C4FEAEC0CA4EB5F
:103AE000CC0CBCF1000F02D04FF0010C01E04FF004
:103AF000000C6344224604EBD27C4FEA6C0C03FBBF
:103B00000CF3DBB20093A7F12000C7B2002556E00A
:103B10000C2C07D107EB47004B4901EB800010F854
:103B2000059013E0102C05D1484800EB071010F861
:103B300005900BE0182C07D107EBC700444901EBB7
:103B4000800010F8059001E0BDE8F88F4FF0000A02
:103B50002FE009F0800030B13E48028831464046EF
:103B6000FFF7BBFA07E00A9828B93B4802883146BC
:103B70004046FFF7B2FA4FEA49604FEA1069701CFD
:103B800086B22F484088B04200DCDDE7A6EB0B0090
:103B9000A0420AD15E4608F101001FFA80F82848C9
:103BA0000088404500DCCFE706E00AF1010000F0A4
:103BB000FF0ABAF1080FCCDB00BF681CC5B2009841
:103BC0008542A5DB00BFBFE710B50246012000E03B
:103BD00050430B1EA1F10104E1B2F9D110BD2DE952
:103BE000FF4F81B0074691461E460E9D4FF0000ADA
:103BF000002448E0301B401EC1B20A20FFF7E4FF5A
:103C0000B9FBF0F00A21B0FBF1F201FB1208BAF1A6
:103C1000000F25D1701EA04222DDB8F1000F1DD18A
:103C20000020AB4605EBDB71491001FB04710090ED
:103C300088B22B4620220299FFF73EFF21E00000C8
:103C4000A001002000000860A86200081C670008AE
:103C50000C6D000840000020420000204FF0010AD7
:103C60000020AB4605EBDB71491001FB04710090AD
:103C700088B208F13001CAB22B460299FFF71CFF47
:103C800000BF601CC4B2B442B4DB05B0BDE8F08F25
:103C90002DE9FF4F82B0064692461F46DDE90F48E8
:103CA0000020019000254DE0781B401EC1B20A2083
:103CB000FFF78AFFBAFBF0F00A21B0FBF1F201FB3B
:103CC0001209019850BB781EA84227DDB9F1000FF8
:103CD00022D108F0800078B108F00100A34604EB7F
:103CE000DB71491001FB0561009088B22346302248
:103CF0000399FFF7E1FE0EE008F00100A34604EB94
:103D0000DB71491001FB0561009088B22346202237
:103D10000399FFF7D1FE13E00120019008F00100A4
:103D2000A34604EBDB71491001FB0561009088B2EA
:103D300009F13001CAB223460399FFF7BDFE00BF67
:103D4000681CC5B2BD42AFDB06B0BDE8F08F2DE9FF
:103D5000F84704460D4690469946DDE9096704F0A8
:103D6000FF0A08EB04001FFA80F809EB05001FFAB0
:103D700080F916E0444502DB5446A81985B24D454A
:103D800000DB14E0002000903A78334629462046B4
:103D9000FFF792FE304606EBD07104EB61018CB266
:103DA0007F1C38787E2802DC38782028E2DA00BFD1
:103DB000BDE8F8872DE9FF4F07460D461C46AA4689
:103DC0002046E21704EB5272D2102146E31704EBAF
:103DD0005373DB10A4EBC3030BB1012300E00023FA
:103DE0001A44624302F0FF0B002637E0102C08D182
:103DF000029800EBC000FE4901EB800010F806803D
:103E000001E0BDE8FF8F4FF0000921E008F08000DD
:103E100030B1F848028829463846FFF75EF905E0D8
:103E2000F548028829463846FFF757F94FEA4860B7
:103E30004FEA1068681CC5B2A5EB0A00A04203D186
:103E40005546781CC7B206E009F1010000F0FF09F1
:103E5000B9F1080FDADB00BF701CC6B25E45C5DBE6
:103E600000BFCEE770B506464FF48C7096FBF0F0BD
:103E7000783084B2E148007860B121460020FFF735
:103E80001EF90020DE490880DE4804800020DB495E
:103E900008701CE0DA480088401C85B2B5F5A07FA8
:103EA0000CDA23462A46D7480188D5480088FFF710
:103EB00041FDD3480580D348048008E02146002016
:103EC000FFF7FDF80020CE490880CE48048070BD81
:103ED00070B504460E460025032096FBF0F0C0F5B1
:103EE000A07085B20020C34908804FF4A073224619
:103EF000E6212046FFF71EFD601CF02805DC4FF48C
:103F0000A073621CE621FFF715FDA01CF02805DC5C
:103F10004FF4A073A21CE621FFF70CFD4FF4FC60E8
:103F2000B44908804CB929462046FFF7C8F800205C
:103F3000B5490880B54805800BE02B462246B348BA
:103F40000188B1480088FFF7F5FCAF480480AF480E
:103F5000058070BD2DE9F04F04460D469046994608
:103F6000DDF824B0DA46AFB20FE0A6B207E03AF8C7
:103F7000022B39463046FFF7B0F8701C86B208EBCA
:103F80000400B042F3DC781C87B209EB0500B842AC
:103F9000EBDCBDE8F08F2DE9FC4F06460C461746DA
:103FA00098464FF0180B01941BFB0BF1A1F1400058
:103FB000C11700EB5171C1F3C701009100252DE03D
:103FC000934800EBC71010F805904FF0000A1FE06F
:103FD00009F0800028B1424621463046FFF77DF8BF
:103FE00004E0214630460B9AFFF777F84FEA496024
:103FF0004FEA1069601C84B20198201A584503D119
:10400000019C701C86B206E00AF1010000F0FF0A74
:10401000BAF1080FDCDB00BF681CC5B2009885420E
:10402000CEDBBDE8FC8F0CB57A483C23542200213E
:1040300000900846FFF78EFF00206E49088076A0AA
:1040400018210B46F022CDE900101E215A20FFF75F
:104050007EFE002010230246642100900220FFF71C
:10406000A9FE002010230122642100901220FFF7F6
:10407000A1FE002010230222642100904B20FFF7B4
:1040800099FE002010230322642100905B20FFF79B
:1040900091FE002010231A46782100900220FFF79D
:1040A00089FE002010231122782100901220FFF7B2
:1040B00081FE002010231222782100902220FFF799
:1040C00079FE002010230622782100904B20FFF774
:1040D00071FE002010230722782100905B20FFF75B
:1040E00069FE002010231B228C210090FFF762FE46
:1040F000002010231C228C2100901846FFF75AFE46
:104100000020102317228C2100902020FFF752FE60
:10411000002010231D228C2100904B20FFF74AFE27
:10412000002010231E228C2100905B20FFF742FE0E
:104130000020102317228C2100906B20FFF73AFEFD
:1041400038A010210B462022CDE90010A0214B20E1
:10415000FFF7FDFD002010230422A02100905B202A
:10416000FFF728FE002010230522A02100906B20DD
:10417000FFF720FE002010230C22A0210090022037
:10418000FFF718FE002010230D22A021009012201E
:10419000FFF710FE002010230822A021009022200B
:1041A000FFF708FE002010230246A0210090912076
:1041B000FFF700FE002010230122A0210090A12083
:1041C000FFF7F8FD002010230922A0210090B12064
:1041D000FFF7F0FD002010230A22A0210090C1204B
:1041E000FFF7E8FD002010230B22A02100901BE028
:1041F000687A0008400000204200002048000020AB
:1042000044000020460000204A0000204C0000200E
:10421000787F0008788100084D614B657262617398
:104220006500000052520000D120FFF7C3FD0020BE
:1042300010231322782100909320FFF7BBFD00206C
:104240001023142278210090A320FFF7B3FD002053
:104250001023152278210090B320FFF7ABFD00203A
:104260001023162278210090C320FFF7A3FD002021
:1042700010230246642100909320FFF79BFD00204D
:104280001023182264210090A320FFF793FD002043
:104290001023192264210090B320FFF78BFD00202A
:1042A00010231A2264210090C320FFF783FD002011
:1042B00010231F228C2100909320FFF77BFD00200C
:1042C000102320228C210090A320FFF773FD0020F3
:1042D000102302228C210090B320FFF76BFD0020F9
:1042E000102317228C210090C320FFF763FD4FF6A7
:1042F000FF7000231A46412100902820FFF74BFE53
:104300004FF6FF7000230122412100905020FFF75B
:1043100042FE4FF6FF7000230222412100907820D8
:10432000FFF739FE4FF6FF70002303224121009072
:10433000A020FFF730FE25E04FF4A0731648027866
:10434000E6210078FFF7F6FA13480078401CF028C1
:1043500009DC4FF4A07310480278521CE621007863
:10436000401CFFF7E7FA0C480078801CF02809DCB5
:104370004FF4A07308480278921CE6210078801C54
:10438000FFF7D8FA044801780078401E024A1070FE
:104390000029D1D10CBD00004E0000201CB5012128
:1043A0000846FCF72FFF2020009001208DF8050023
:1043B0008DF8040000208DF8060069469E48FCF741
:1043C00029FC01210846FCF71DFF10200090012068
:1043D0008DF805008DF804008DF8060069469648B2
:1043E000FCF718FC10219448FCF790FC202192481F
:1043F000FCF78CFC1CBD1CB52020009001208DF822
:1044000004008DF806008DF8050069468A48FCF71F
:1044100001FC1CBD1CB52020009001208DF8060079
:1044200002208DF8040069468348FCF7F3FB1CBDAD
:104430001CB52020009000208DF8040001208DF88C
:10444000070069467C48FCF7E5FB1CBD10B5FFF78B
:10445000D2FF20217848FCF759FC10217648FCF760
:1044600055FC0520FEF75EF820217348FCF750FC50
:104470000520FEF757F810BD10B5FFF7BCFF10215F
:104480006D48FCF745FC20216B48FCF741FC1021EE
:104490006948FCF73BFC0620FEF744F820216648FB
:1044A000FCF734FC0620FEF73DF810BD10B51021D6
:1044B0006148FCF72DFCFFF79EFF20215E48FCF7CA
:1044C00027FC0220FEF72EF810215B48FCF71EFCAB
:1044D0000520FEF727F810215748FCF719FC10BDFE
:1044E00010B510215448FCF713FCFFF784FF20217E
:1044F0005148FCF70BFC0220FEF714F810214E483F
:10450000FCF704FC0520FEF70DF810214A48FCF7E3
:10451000FFFB10BD10B50024FFF77CFF20214648AB
:10452000FCF7F4FB0120FDF7FDFF10214248FCF7EA
:10453000EDFB0120FDF7F6FF0AE0601CC4B201208C
:10454000FDF7F0FFFA2C03DDFFF796FF012010BD09
:1045500020213948FCF7C0FB0028EED11021364855
:10456000FCF7D6FB0120FDF7DDFF0020EFE770B57B
:1045700004460025FFF73FFF00BF1EE010212E4834
:10458000FCF7C6FB04F08000002804DD20212A4847
:10459000FCF7BCFB03E020212748FCF7B9FB6006D1
:1045A000040E0120FDF7BEFF10212348FCF7AEFBEF
:1045B0000220FDF7B7FF681CC5B2082DDEDB102115
:1045C0001D48FCF7A5FB0220FDF7ACFFFFF788FFB5
:1045D00070BD70B5054600260024FFF729FF00BF17
:1045E0001FE010211448FCF793FB0220FDF79AFF0F
:1045F00010211148FCF78AFB00BF10210E48FCF780
:104600006BFB0028F9D06006040E20210A48FCF755
:1046100063FB08B1601CC4B20120FDF783FF701C6E
:10462000C6B2082EDDDB15B9FFF75AFF01E0FFF730
:104630003DFF204670BD0000000002401CB5012176
:104640000846FCF7DFFD0820009001208DF80500EA
:104650008DF8040000208DF806006946A348FCF799
:10466000D9FA01210846FCF7CDFD04200090012075
:104670008DF805008DF804008DF8060069469B480A
:10468000FCF7C8FA04219948FCF740FB0821974839
:10469000FCF73CFB1CBD1CB50820009001208DF8E8
:1046A00004008DF806008DF8050069468F48FCF778
:1046B000B1FA1CBD1CB50820009001208DF8060041
:1046C00002208DF8040069468848FCF7A3FA1CBD57
:1046D0001CB50820009000208DF8040001208DF802
:1046E000070069468148FCF795FA1CBD10B5FFF735
:1046F000D2FF08217D48FCF709FB04217B48FCF729
:1047000005FB0520FDF70EFF08217848FCF700FBAC
:104710000620FDF707FF04217448FCF7F9FA10BDE5
:1047200010B5FFF7B8FF04217048FCF7F1FA082133
:104730006E48FCF7EDFA04216C48FCF7E7FA062016
:10474000FDF7F0FE08216948FCF7E0FA0620FDF7C6
:10475000E9FE10BD10B504216448FCF7D9FAFFF753
:104760009AFF08216148FCF7D3FA0220FDF7DAFE30
:1047700004215E48FCF7CAFA0520FDF7D3FE0421A8
:104780005A48FCF7C5FA10BD10B504215748FCF78C
:10479000BFFAFFF780FF08215448FCF7B7FA022060
:1047A000FDF7C0FE04215148FCF7B0FA0520FDF7E3
:1047B000B9FE04214D48FCF7ABFA10BD10B500243A
:1047C000FFF778FF08214948FCF7A0FA0120FDF720
:1047D000A9FE04214548FCF799FA0120FDF7A2FE45
:1047E0000AE0601CC4B20120FDF79CFEFA2C03DD38
:1047F000FFF796FF012010BD08213C48FCF76CFA3A
:104800000028EED104213948FCF782FA0120FDF797
:1048100089FE0020EFE770B504460025FFF73BFF57
:1048200000BF25E004213148FCF772FA04F0800053
:10483000002804DD08212D48FCF768FA03E0082170
:104840002A48FCF765FA6006040E0120FDF76AFEAF
:1048500004212648FCF75AFA0220FDF763FE0421E2
:104860002248FCF755FA0220FDF75CFE681CC5B231
:10487000082DD7DB04211D48FCF74AFA0220FDF77A
:1048800051FEFFF781FF70BD70B50546002600247C
:10489000FFF71EFF00BF1FE004211448FCF738FAA1
:1048A0000220FDF73FFE04211048FCF72FFA00BF5D
:1048B00004210E48FCF710FA0028F9D06006040E17
:1048C00008210A48FCF708FA08B1601CC4B20120AC
:1048D000FDF728FE701CC6B2082EDDDB15B9FFF708
:1048E00053FF01E0FFF736FF204670BD0000024095
:1048F00010B50446FFF7AAFD2046FFF738FE012059
:10490000FFF735FE0020FFF732FE8420FFF72FFE71
:10491000FFF7B2FD10BD30B52DED068B81B004461A
:10492000FFF794FD2046FFF722FE0020FFF71FFE51
:10493000FFF78CFD44F00100FFF719FE0120FFF79F
:1049400048FE8DF800000020FFF743FE8DF80100BF
:10495000FFF792FD9DF801009DF8001040EA012547
:10496000284601F0B6F941EC1A0B9FEDFE0B53EC13
:10497000102B01F0BCF841EC190B01F0E3F908EE43
:10498000100AB0EE480A01B0BDEC068B30BD10B580
:104990000446FFF7ABFE2046FFF73DFF0120FFF77F
:1049A0003AFF0020FFF737FF8420FFF734FFFFF7BF
:1049B000B7FE10BD30B52DED068B81B00446FFF774
:1049C00095FE2046FFF727FF0020FFF724FFFFF7A3
:1049D0008DFE44F00100FFF71EFF0120FFF754FF9A
:1049E0008DF800000020FFF74FFF8DF80100FFF762
:1049F00097FE9DF801009DF8001040EA0125284629
:104A000001F067F941EC1A0B9FEDD60B53EC102B1C
:104A100001F06DF841EC190B01F094F908EE100A61
:104A2000B0EE480A01B0BDEC068B30BD10B52DEDDF
:104A30000E8B9020FFF76FFFCC4880ED000A90208E
:104A4000FFF7B8FFCA4880ED000AC84890ED000A99
:104A5000C748D0ED000A30EE600A10EE101A084682
:104A600001F044F941EC180B9FEDC20B53EC102BF5
:104A700001F050F94CD2BD4890ED000ABC48D0ED91
:104A8000000A30EE600A10EE101A084601F02EF906
:104A900041EC1D0B9FEDB70B53EC102B01F021F8EF
:104AA00041EC1B0BB14890ED000AB148D0ED000A73
:104AB00030EE600A10EE101A084601F017F941ECCA
:104AC0001E0B9FEDAC0B53EC102B01F00AF841ECE0
:104AD0001D0B9FEDAA0B53EC102B01F008F841ECD5
:104AE0001C0B53EC1B2B01F002F841EC190B9F48F7
:104AF000006801F0FBF841EC1A0B53EC192B00F0A5
:104B00004FFF41EC180B01F01DF99E4908604BE086
:104B1000964890ED000A9648D0ED000A30EE600A03
:104B200010EE101A084601F0E1F841EC1D0B9FED64
:104B3000910B53EC102B00F0D4FF41EC1B0B8B4876
:104B400090ED000A8A48D0ED000A30EE600A10EEBF
:104B5000101A084601F0CAF841EC1E0B9FED850BB8
:104B600053EC102B00F0BDFF41EC1D0B9FED860BAD
:104B700053EC102B00F0BBFF41EC1C0B53EC1B2B38
:104B800000F0B5FF41EC190B7848006801F0AEF871
:104B900041EC1A0B53EC192B00F0A3FF41EC180B5E
:104BA00001F0D0F877490860704890ED000AF3EE04
:104BB0000C0AB4EEE00AF1EE10FA05DD7448006864
:104BC000401C734908600CE071480068B0F5FA6F4A
:104BD00004D14FF4FA606E49086002E000206C498D
:104BE00008606B48006858B9604890ED000A694851
:104BF00080ED000A9FED680A684880ED000A66E2D1
:104C00006348006800280ADD61480068142806DA55
:104C1000564890ED000A5F4880ED000A57E25C4874
:104C2000006814287DD1514890ED000A594880ED64
:104C3000000A4E4890ED000A594880ED000A4B48A2
:104C400090ED000ADFED570AB4EEE00AF1EE10FA3B
:104C500032DD90ED000ADFED540AB4EEE00AF1EE29
:104C600010FA29D890ED000ADFED4E0A30EE600A06
:104C700010EE101A084601F039F841EC1B0B9FEDBD
:104C80004B0B53EC102B00F032FF41EC1A0B9FED55
:104C9000490B53EC102B00F09CFF41EC190B9FEDDE
:104CA000470B53EC102B00F07BFE41EC180B01F08E
:104CB00049F83A4908600AE22C4890ED000AF3EE00
:104CC0000E0AB4EEE00AF1EE10FA34DD90ED000ABF
:104CD000DFED340AB4EEE00AF1EE10FA2BD890EDD5
:104CE000000AF3EE0E0A30EE600A10EE101A0846C3
:104CF00000F0FCFF41EC1B0B9FED320B53EC102B33
:104D000000F0F5FE41EC1A0B9FED300B53EC102B2D
:104D100000F05FFF41EC190B9FED2E0B53EC102BB5
:104D200000E08BE000F03CFE41EC180B01F00AF8CB
:104D30001A490860CBE10D4890ED000AF3EE0C0A29
:104D4000B4EEE00AF1EE10FA71DD90ED000AF3EE38
:104D50000E0AB4EEE00AF1EE10FA68D890ED000AFF
:104D60003CE00000000000000000803F64000020E4
:104D7000600000209A99999999990540333333330B
:104D80003333C33F5000002048E17A14AE47D13F8F
:104D9000680000205400002000000000580000209F
:104DA0005C00002000001042000024426666666637
:104DB00066661040000000000000144033333333B7
:104DC00033734240666666666666E63F0000000032
:104DD000000018409A99999999194240F3EE0C0AEB
:104DE00030EE600A10EE101A084600F07FFF41EC2A
:104DF0001B0B9FEDBE0B53EC102B00F078FE41EC2B
:104E00001A0B9FEDBC0B53EC102B00F0E2FE41ECB3
:104E1000190B9FEDBA0B53EC102B00F0C1FD41ECC8
:104E2000180B00F08FFFB749086050E1FFE7B64864
:104E300090ED000AB34880ED000A48E1B3480068ED
:104E4000142841DDB148006819283DDCB0480068ED
:104E500000F04CFF41EC190BAA4890ED000AAC4859
:104E6000D0ED000A30EE600A10EE101A084600F08D
:104E70003DFF41EC1C0BA5490968A1F1140000F0AD
:104E800017FF41EC1E0B9FEDA30B53EC102B00F012
:104E90002EFE41EC1D0B53EC1C2B00F028FE41ECC8
:104EA0001B0B1FED3C0B53EC102B00F092FE41EC62
:104EB0001A0B53EC192B00F073FD41EC180B00F0AA
:104EC00041FF9649086002E190480068192841DDD9
:104ED0008E4800681E283DDC8A4890ED000A8C4808
:104EE000D0ED000A30EE600A10EE101A084600F00D
:104EF000FDFE41EC1C0B85490968C1F11E0000F064
:104F0000D7FE41EC1E0B9FED860B53EC102B00F0EF
:104F1000EEFD41EC1D0B53EC1C2B00F0E8FD41ECC9
:104F20001B0B1FED5C0B53EC102B00F052FE41EC01
:104F3000190B7448006800F0D9FE41EC1A0B53ECD1
:104F4000192B00F0CEFD41EC180B00F0FBFE73496D
:104F50000860BCE0744890ED000A5FED6E0AB4EEA4
:104F6000E00AF1EE10FA32DD90ED000A5FED720A10
:104F7000B4EEE00AF1EE10FA29D890ED000A5FEDE8
:104F8000770A30EE600A10EE101A084600F0AEFE06
:104F900041EC1B0B1FED7B0B53EC102B00F0A7FD1E
:104FA00041EC1A0B1FED7D0B53EC102B00F011FEA2
:104FB00041EC190B1FED7F0B53EC102B00F0F0FCB4
:104FC00041EC180B00F0BEFE544908607FE05648E3
:104FD00090ED000AF3EE0E0AB4EEE00AF1EE10FADC
:104FE00032DD90ED000A5FED910AB4EEE00AF1EED9
:104FF00010FA29D890ED000AF3EE0E0A30EE600A9E
:1050000010EE101A084600F071FE41EC1B0B1FED6C
:10501000930B53EC102B00F06AFD41EC1A0B1FEDC3
:10502000950B53EC102B00F0D4FD41EC190B1FED48
:10503000970B53EC102B00F0B3FC41EC180B00F075
:1050400081FE3649086042E0374890ED000AF3EEF1
:105050000C0AB4EEE00AF1EE10FA32DD90ED000A2F
:10506000F3EE0E0AB4EEE00AF1EE10FA29D890ED54
:10507000000AF3EE0C0A30EE600A10EE101A084631
:1050800000F034FE41EC1B0B9FED180B53EC102B82
:1050900000F02DFD41EC1A0B9FED160B53EC102B7D
:1050A00000F097FD41EC190B9FED140B53EC102B06
:1050B00000F076FC41EC180B00F044FE1749086044
:1050C00005E0194890ED000A144880ED000A1348E5
:1050D00090ED000ADFED150A20EE200ABDEEC00AB1
:1050E00010EE100A80B2BDEC0E8B10BD333333339B
:1050F0003333F33F000000000000004000000000D8
:10510000008041405800002064000020680000201A
:105110005C0000209A9999999999E93F54000020E0
:105120009A9999999999C93F500000200000C84266
:1051300008B5FFF77BFCFC4948810846408964219B
:1051400090FBF1F0F849087208464089642190FB11
:10515000F1F201FB1200F44948720846007A4873E4
:105160000846407A08740846807B497B884216D0FE
:10517000ED48C07B401CEC49C8730846C07B5028F2
:105180000DDB002048810846407B88730846007A82
:1051900000EE100AB8EE400A084680ED000AE24828
:1051A000407CE149097C884216D0DF48807C401C65
:1051B000DD4988740846807C64280DDB00208874F3
:1051C0000846007C48740846407A00EE100AB8EEA3
:1051D000400A084680ED010A4FF47840D349088020
:1051E000D348007800286DD010200090D14890F866
:1051F0004120022364213620FEF7F1FC10200090AC
:10520000CC4890F84220022364216E20FEF7E7FC90
:1052100010200090C74890F84320022378213620C0
:10522000FEF7DDFC10200090C24890F847200323D1
:105230008C212E20FEF7D3FC10200090BD4890F862
:10524000482002238C217D20FEF7C9FC102000900D
:10525000B84890F84B200223A0217D20FEF7BFFC28
:1052600010200090B448827803238C21D220FEF7CE
:10527000B6FC10200090AF4890F844200223A021F3
:105280003620FEF7ACFC10200090AA4890F8492088
:1052900002236421D920FEF7A2FC10200090A5482B
:1052A00090F84A2002237821D920FEF798FC10209C
:1052B0000090A04890F84D200223A021E020FEF7A6
:1052C0008EFC8BE0002010232022782100907D208E
:1052D000FEF7F2FB0020102320227821009084208A
:1052E000FEF7EAFB002010232022782100908C207A
:1052F000FEF7E2FB102002230022782100906C20B0
:10530000FEF76DFC1020022300226421009036205D
:10531000FEF765FC102002230022642100906E201D
:10532000FEF75DFC10200223002278210090362039
:10533000FEF755FC1020032300228C2100902E2024
:10534000FEF74DFC1020022300228C2100907D20CE
:10535000FEF745FC102002230022A02100907D20B2
:10536000FEF73DFC1020032300228C210090D22068
:10537000FEF735FC102002230022A02100903620E9
:10538000FEF72DFC10200223002264210090D9207A
:10539000FEF725FC10200223002278210090D9205E
:1053A000FEF71DFC102002230022A0210090E02027
:1053B000FEF715FC58215F4800F0E7FA02215F482C
:1053C0000078FEF785FD5D480078401C5B49087059
:1053D00008460078F02801DB0020087008BD1CB5E5
:1053E00001211020FBF7B4FE4020009001208DF831
:1053F000040000208DF8060003208DF805006946A2
:105400004F48FBF707FC1CBD30B501244D4D2C70F7
:105410002C46A070E170227163710024AC712C7273
:105420006C7230BD4748007818B94648407800286B
:105430005ED04448C079401C4249C8710846C079D2
:105440000A2858DB0020C8710846007800283BD0A5
:1054500008468078032800D170473A4880780128B0
:105460000ED13848007A401C364908720846007A46
:10547000C978884228DB00203249C870087023E0D0
:105480003048807802281FD12E48007A401C2D49D0
:1054900008720846007AC978884215DB002029493D
:1054A000087208468079401C887100200870084600
:1054B00080790979884204DB0020224988710871CB
:1054C00002E001201F4948701E48407878B11D480D
:1054D000407A401C1B4948720846407A4979884204
:1054E00009DB00201749487248700120087002E06B
:1054F00000201449C87100BFAEE710B50C48007811
:1055000000B910BD10480078002851D0094890F823
:10551000420059281CDC00200C4908800878002132
:10552000FEF7D6FCEDE70000BC01002040000020A3
:105530003C00002048010020D00100206C00002029
:1055400000100240B00100202E0000206E0000205C
:10555000CE480088401CCD490880CD480078401CCA
:10556000CB490870084600783C2801DB022008700F
:10557000C6480088F02802DB0020C4490880C548DE
:10558000C3490978405CFA2804DB8020C149C04A3D
:1055900012788854BF48BE490978405C40B28C30CC
:1055A000BD490880B9490878BB490988FEF790FCD5
:1055B00000BFA6E708B5B948007800B908BD4FF4A8
:1055C0007840B7490880B34890F84100142849DD75
:1055D000B04890F84100322804DBAE4890F8410012
:1055E00064283FDBAB4890F82800AE490870AE480D
:1055F00000780978884208D0AC480078401CAB4954
:105600000870A8480078A8490870A84800780428BD
:1056100028DB0020A549087000231A46FF2102203C
:10562000FFF7F2FE002010230246BE210090282042
:10563000FEF7C0FB002010230122BE21009038207D
:10564000FEF7B8FB002010230E22BE210090482058
:10565000FEF7B0FB002010230F22BE21009058203F
:10566000FEF7A8FB8B4890F842005C2844DC894890
:1056700090F8420014283FDB864890F842008C499D
:1056800008708C4800780978884208D08A480078E9
:10569000401C894908708648007886490870864809
:1056A0000078142828DB00208349087000231A465C
:1056B000FF210220FFF7A8FE002010230222BE21B6
:1056C00000902820FEF776FB002010230322BE2145
:1056D00000903820FEF76EFB002010232122BE210F
:1056E00000904820FEF766FB002010232222BE21F6
:1056F00000905820FEF75EFB00BF5FE710B56F48D3
:10570000007870B100206D49087080216C48FBF76B
:10571000F0FAC0F10100C4B2224680216848FBF7CC
:10572000F9FA10BD5B484078664908706648007811
:105730000978884205D165480078401C63490870A3
:1057400006E0604800786049087000205F490870F2
:105750005E480078C82804DB00205C4908705C497A
:1057600008707047024610680B68C01A704770B521
:1057700004460D465748047045700078642835DBB0
:10578000544800788C2831DC524801780F30524A56
:105790001278815450480078401C4F4908700846E0
:1057A0000078032815DBAFF24303042203214948A4
:1057B0000F3000F095F800204749087045480079FF
:1057C000401C444908710846C188007C084441498E
:1057D000C88040480079042808DB3E48C088C0F3F0
:1057E00087003C4988720020C88008713948407899
:1057F000462836DB37484078642832DC3548417823
:105800000C30364A1278815434480078401C3349B1
:10581000087008460078032815DBAFF2B7030422AE
:1058200003212C480C3000F05BF800202B49087055
:1058300028484079401C2749487108460189407B27
:1058400008442449088123484079042809DB0020C2
:105850002049487108460089C0F38700C8720020BB
:1058600008811C48817AC07A01EB4000032190FB3B
:10587000F1F018498870074890F8410028B90548A8
:1058800090F8420008B90020887070BD6E000020BA
:105890006D00002048010020700000203C00002026
:1058A00040000020740000207500002072000020DD
:1058B0007600002077000020730000202F000020D9
:1058C000000002407A0000207900002078000020CB
:1058D0002E000020D00100207B0000207C00002052
:1058E0002DE9FE43994615468846074601AC022934
:1058F00042D3002D40D000200290A8F101004FF0CB
:10590000FF36009022E000FB057201FB0570114696
:105910004A469047002805DC54F82600304444F8F5
:10592000260013E060682A4600FB057154F8040C59
:1059300000FB057007E00B7890F800C001F801CB80
:1059400000F8013B521E002AF5D1764254F8040CAF
:1059500061688842D7DC4B462A463846FFF7C0FFCD
:1059600054F8040C4B46A8EB0001401C00FB0570EA
:105970002A46491EFFF7B4FFBDE8FE83D2B201E01C
:1059800000F8012B491EFBD270470022F6E710B544
:1059900013460A4604461946FFF7F0FF204610BD9D
:1059A0002DE9FE4F804681EA0300C00F0C460090AF
:1059B00021F0004123F00045B8EB0200A94105D2D7
:1059C0004046214690461C460B46024623F00040C6
:1059D000104347D0270DC7F30A00C3F30A510290C2
:1059E000401A019040286BDAC3F3130040F4801B87
:1059F0000098924620B10023D2EB030A63EB0B0B15
:105A000001985946C0F14002504600F0E8F90646B8
:105A10000D4650465946019A00F0F0F910EB080087
:105A20006141002487EA115284EAE7731A4340D0A7
:105A3000009A62B3019A012A4FEA075215DC001B53
:105A400061EB02014FF0004202EA0752CDE9004249
:105A5000001C41F5801132462B4600F027FA03B0B6
:105A6000BDE8F08F40462146F9E7001B61EB0201DB
:105A7000001C41F5801300185B412018A2F50017A7
:105A800047EB030140EAD570B6196D4111E06D088E
:105A90004FEA360645EAC0754FEA0752001B61EB34
:105AA0000201001C41F5801149084FEA300000193D
:105AB000514132462B4603B0BDE8F04F00F0E7B944
:105AC0000098012240000023D0EB020263EBE07358
:105AD000009821464FEAE074B8EB000061EB040146
