:020000040800F2
:10000000C89B01207102000833640008DF44000827
:1000100031640008D50E000889780008000000004F
:10002000000000000000000000000000B101000816
:1000300015160008000000000D020008617000089D
:100040008B0200088B0200088B0200086D68000814
:100050008B0200088B020008951700088B0200082D
:100060008B0200088B020008D11700088B020008E1
:100070008B0200088B0200088B0200088B0200082C
:100080008B0200088B0200088B02000800000000B1
:10009000000000000000000000000000D71700086A
:1000A0008B0200082D7100088B0200088B020008EB
:1000B0008B0200088B0200088B0200088B020008EC
:1000C0008B0200088B0200088B0200088B020008DC
:1000D0008B020008C57700082178000800000000A6
:1000E000B11700088B0200088B0200080000000016
:1000F0000000000000000000000000008B0200086B
:10010000000000008B0200088B0200088B02000830
:1001100000000000000000000000000000000000DF
:100120008B0200088B020008A11400088B02000853
:100130008B0200080000000000000000000000002A
:100140000000000000000000000000008B0200081A
:10015000AD1400088B020008B91400088B020008D7
:100160008B0200088B020008000000000000000065
:10017000000000000000000000000000000000007F
:10018000000000008B0200080000000000000000DA
:100190008B0200088B020008DFF810D000F0E0FBB3
:1001A0000048004751490208AFF30080C89B012076
:1001B0002C4B19680868B0E8F04F80F30988BFF34A
:1001C0006F8F4FF0000080F311887047000000002F
:1001D00008480068006880F308884FF0000080F34A
:1001E000148862B661B6BFF34F8FBFF36F8F00DF25
:1001F00000BF00BF08ED00E0DFF80C00016841F42B
:1002000070010160704700BF88ED00E0EFF30980E6
:10021000BFF36F8F134B1A681EF0100F08BF20ED4D
:10022000108A20E9F04F106009B44FF0500080F3BD
:100230001188BFF34F8FBFF36F8F2FF01DFE4FF06C
:10024000000080F3118809BC19680868B0E8F04F15
:100250001EF0100F08BFB0EC108A80F30988BFF3BE
:100260006F8F704788070020EFF30580704700000C
:100270000648804706480047FEE7FEE7FEE7FEE740
:10028000FEE7FEE7FEE7FEE7FEE7FEE71171000886
:10029000990100082DE9F05F0546002092469B4633
:1002A00088460646814640241BE02846414647468C
:1002B000224600F09CFA53465A46C01A914110D388
:1002C00011461846224600F083FA2D1A67EB010802
:1002D0004F4622460120002100F07AFA17EB000970
:1002E0004E41201EA4F10104DFDC484631462A4677
:1002F0004346BDE8F09F2DE9FE43994615468846E2
:10030000074601AC022942D3002D40D000200290C4
:10031000A8F101004FF0FF36009022E000FB0572CB
:1003200001FB057011464A469047002805DC54F849
:100330002600304444F8260013E060682A4600FB9B
:10034000057154F8040C00FB057007E00B7890F879
:1003500000C001F801CB00F8013B521E002AF5D184
:10036000764254F8040C61688842D7DC4B462A4632
:100370003846FFF7C0FF54F8040C4B46A8EB0001C9
:10038000401C00FB05702A46491EFFF7B4FFBDE87C
:10039000FE8340EA01039B0703D009E008C9121F4E
:1003A00008C0042AFAD203E011F8013B00F8013B2F
:1003B000521EF9D27047D2B201E000F8012B491E5B
:1003C000FBD270470022F6E710B513460A460446F2
:1003D0001946FFF7F0FF204610BD421E12F8013FFC
:1003E000002BFBD111F8013B02F8013B002BF9D1A6
:1003F0007047421C10F8011B0029FBD1801A70477E
:1004000010B5002200E0521C835C8C5CA34201D139
:10041000002BF8D1D8B2E1B2401A10BD30B5044675
:100420000020034600E05B1C934203D2E05CCD5CFD
:10043000401BF8D030BD034611F8012B00F8012B0A
:10044000002AF9D1184670472DE9FE4F804681EA0F
:100450000300C00F0C46009021F0004123F000453E
:10046000B8EB0200A94105D24046214690461C4601
:100470000B46024623F00040104347D0270DC7F338
:100480000A00C3F30A510290401A019040286BDA27
:10049000C3F3130040F4801B0098924620B1002360
:1004A000D2EB030A63EB0B0B01985946C0F14002F3
:1004B000504600F08DF906460D4650465946019AC1
:1004C00000F0A5F910EB08006141002487EA115201
:1004D00084EAE7731A4340D0009A62B3019A012A72
:1004E0004FEA075215DC001B61EB02014FF000429E
:1004F00002EA0752CDE90042001C41F58011324664
:100500002B4600F0DCF903B0BDE8F08F40462146F1
:10051000F9E7001B61EB0201001C41F58013001894
:100520005B412018A2F5001747EB030140EAD570A4
:10053000B6196D4111E06D084FEA360645EAC075FF
:100540004FEA0752001B61EB0201001C41F58011CC
:1005500049084FEA30000019514132462B4603B09A
:10056000BDE8F04F00F09CB9009801224000002344
:10057000D0EB020263EBE073009821464FEAE0748F
:10058000B8EB000061EB0401E9E783F000435BE7AF
:1005900081F0004158E72DE9FE4F81EA030404F0A1
:1005A000004421F0004100944FF0000B23F0004381
:1005B00050EA01045ED052EA03045BD0C3F30A544C
:1005C000C1F30A552C44A4F2F3340194A0FB025465
:1005D000C1F3130141F48011C3F3130343F48013F7
:1005E00001FB024400FB034E840A970A44EA81544B
:1005F00047EA8357A4FB076802958D0A05FB078528
:100600004FEA932C04FB0C542705029D4FEA065831
:1006100047EA1637B5EB08056EEB070C870E920E0E
:1006200047EA811742EA8312A7FB0201B6EB0B01EE
:1006300064EB00042B0D43EA0C335E1844EB1C50B2
:10064000DA465146E7FB0201C5F313044FEA0B33C8
:1006500043EA14534FEA0432019C43EA0603A4F12F
:100660000C040294009CCDE900B400F028F903B01A
:10067000BDE8F08F00200146F9E72DE9F04D81EA51
:10068000030404F0004B21F0004514464FF0000A2B
:1006900023F0004150EA050220D054EA01021DD0A7
:1006A000C5F30A570246C5F31303C1F31300C1F3A0
:1006B0000A5640F4801543F48013A7EB0608101B7C
:1006C000D64608F2FD3873EB050002D308F10108A5
:1006D00001E092185B41B8F1000F03DA00200146F7
:1006E000BDE8F08D00204FF48011064684460EE0F0
:1006F000171B73EB050705D3121B63EB05030643BA
:100700004CEA010C49084FEA300092185B4150EA6C
:100710000107EDD152EA030012D082EA040083EA15
:100720000501084305D0101BAB4106D2012200236E
:1007300006E000224FF0004302E06FF00102531088
:100740001AEB06004CEB085110EB0A0041EB0B01D1
:10075000BDE8F04D00F0A4B80EB540F2334102916F
:100760000021CDE900110A460B4600F0A8F803B0BD
:1007700000BD00F0004230F000400AD0C10D01F58C
:100780006071C0F3160042EA0151C20840071143EC
:10079000704700200146704701F0004330B421F05B
:1007A000004150EA010206D00A0DA2F56072C1F3C1
:1007B0001301002A02DC30BC00207047440F44EAD9
:1007C000C104C100E01830BC00EBC25000F031B8E9
:1007D000202A04DB203A00FA02F100207047914001
:1007E000C2F1200320FA03F3194390407047202AF6
:1007F00004DB203A21FA02F00021704721FA02F3CB
:10080000D040C2F120029140084319467047202A87
:1008100006DBCB17203A41FA02F043EAE07306E028
:1008200041FA02F3D040C2F1200291400843194638
:1008300070470029A8BF7047401C490008BF20F03E
:100840000100704710B4B0FA80FC00FA0CF050EAD6
:10085000010404BF10BC704749B1CCF1200421FA57
:1008600004F411FA0CF118BF012121430843A3EB52
:100870000C01CB1D4FEA00614FEA102042BF00205F
:1008800010BC704700EBC35010440029A4BF10BC3B
:100890007047401C490008BF20F0010010BC7047A1
:1008A00010B5141E73F1000408DA401C41F1000178
:1008B00092185B411A4301D120F0010010BD2DE9CF
:1008C000F04D92469B4611B1B1FA81F202E0B0FAC6
:1008D00080F220329046FFF77BFF04460F4640EA45
:1008E0000A0041EA0B0153465A46084313D0114609
:1008F00053EA010019D0C8F140025046FFF777FFD4
:1009000005460E46504659464246FFF761FF0843EA
:1009100005D0012004E020463946BDE8F08D0020D6
:10092000054346EAE0762C4337430A986305E40A18
:10093000A0EB08000022FD0A44EA47540A3002D521
:1009400000200146E9E7010510196941DDE9084584
:1009500000196941BDE8F04DA2E700207047000092
:10096000064C074D06E0E06840F0010394E80700FC
:1009700098471034AC42F6D3FFF712FC94460608B1
:10098000B446060870B58C1810F8015B15F0070323
:1009900001D110F8013B2A1106D110F8012B03E018
:1009A00010F8016B01F8016B5B1EF9D12B0705D420
:1009B0000023521E0DD401F8013BFAE710F8013B69
:1009C000CB1A921C03E013F8015B01F8015B521E85
:1009D000F9D5A142D8D3002070BD0000464910B51A
:1009E0004A6822F440324A604A6843681A434A60BF
:1009F00001684A6822F480724A6001684A680369A3
:100A000042EA03224A6001684A6822F040724A6062
:100A100001684A6883681A434A6001688A6822F458
:100A200000628A6001688A68C3681A438A60816AC2
:100A30006FF07062D14201688A6822F070628A6049
:100A400001688A680CD0836A1A438A6001688A68E0
:100A500022F040528A6001688A68C36A1A4301E042
:100A600022F040528A6001688A6822F002028A609D
:100A700001688A68037E42EA43028A6090F8201087
:100A8000002901684A680FD042F400624A60016898
:100A90004A6822F460424A6001684A68174C436A17
:100AA00004EB43331A4301E022F400624A60016818
:100AB000CA6A22F47002CA620168CA6A838B104C47
:100AC00004EB03531A43CA6201688A6822F4007275
:100AD0008A6001688A6890F8303042EA43228A606E
:100AE00001688A6822F480628A6001688A684069C5
:100AF00042EA8020886010BD0023014000E0FFFF33
:100B00000000F0FF094808B5016841F002010160EA
:100B1000006800F002000090054803F0EBFE28207A
:100B20000BF060FE00F0AAF8002008BD303802404B
:100B3000D00600202DE9F05F82468B460524002573
:100B40004C4803F075FF70214A4803F02DFF4948D7
:100B500003F0ACFFAC21474803F026FF454803F003
:100B6000A5FF3321434803F01FFF424803F09EFFD7
:100B70000021404803F018FF3E4803F097FF3D482E
:100B800003F075FF50200BF02DFE06E005200BF062
:100B900029FE641EE4B200F071F800F06FF8C0079F
:100BA00002D0002CF2D162E0002C60D0314803F07A
:100BB0003FFF71212F4803F0F7FE2E4803F076FF28
:100BC0002C4803F0B1FE2B4803F0D5FE294803F072
:100BD000ABFE8146274803F0CEFE264803F0A4FE74
:100BE0008046244803F0C7FE224803F09DFE0746D6
:100BF000204803F0C0FE1F4803F096FE06461D483D
:100C000003F0B9FE1B4803F08FFE0446194803F0B9
:100C1000F7FE184803F02BFF45EA090548EA0521CD
:100C200047EA012108094FF47A714843000D00EEAC
:100C3000100A380746EA1051F8EE400AB2EE040AEC
:100C400044EA01204FF4FA6180EE801A48430A49D1
:100C500001EB105000EE900A0020F8EE600A8AEDD9
:100C6000001A80EE801A8BED001ABDE8F09F01207B
:100C7000FBE70000D00600200CFEFFFF10B50B487C
:100C800003F0D6FE7121094803F08EFE074803F0F9
:100C90000DFF064803F048FE0446044803F0B0FE8A
:100CA000024803F0E4FE204610BD0000D0060020FC
:100CB00010B505F0FFFC9FED091AF0EE400A80EE3A
:100CC000810ADFED070A07F0EBF9F7EE000A30EED4
:100CD000C00ADFED040A20EE200A10BD80E6C547F9
:100CE00001DE423E002A2D472DE9F0411D462DED43
:100CF000068B14460E4607469DED0D8ADDED0C8AE7
:100D000011FB06F012FB040000EE100AB8EEC00A58
:100D100007F0C0FDF0EE400A00EE107AB8EEC00A0F
:100D200006F010FFF0EE409A17FB07F014FB0400EA
:100D300000EE100AB8EEC00A07F0ACFDF0EE400A73
:100D400000EE106AB8EEC00A06F0FCFEB0EE409A63
:100D500007F0FEF8F8EEE80A60EE208AB0EE490AE5
:100D600007F0D0FCF0EE400A00EE105AB8EEC00AD0
:100D700020EE80AAB0EE690A07F0C4FC4AEE008AB1
:100D8000B0EE690A07F0E4F8F8EEC80A20EE20AAEF
:100D9000B0EE490A07F0B6FC4AEE408AB0EE690AA6
:100DA00007F0D6F8F0EE400A00EE105AB8EEC00A8E
:100DB00020EE809AB0EE690A07F0A4FCF8EEC80AAB
:100DC00000EE809AB0EE680AF0EE490A06F0BAFE2C
:100DD00010EE100AFFF7CDFC9FED091B53EC112B11
:100DE000FFF7D9FB9FED081B53EC112BFFF745FCD8
:100DF000FFF7D2FCBDEC068B00EE100ABDE8F081D7
:100E000000000000008066404AD8124DFB210940D6
:100E1000064882B0016841F001010160006800F0FD
:100E200001000090024802B003F064BD3038024077
:100E3000DC06002008B50B4600920246502102480D
:100E400003F05EFE08BD0000DC06002008B50B467E
:100E5000009202465021024803F0C4FE08BD000083
:100E6000DC06002070B500252C46154800F0C0FFB8
:100E70000521134800F066FF114800F005FF054406
:100E80000F4801F01BF801200BF0ACFC641CE4B22D
:100E9000082CEAD3E8084000FFF75EFC9FED091B31
:100EA00053EC112BFFF777FB9FED081B53EC112B35
:100EB000FFF771FBFFF770FC00EE100A70BD000039
:100EC000C00900206666666666660A40000000008B
:100ED0000000303FFEE7000030B587B014216846BF
:100EE000FFF770FA1348016841F0020101600168E0
:100EF00001F002010591016841F001010160006803
:100F00004FF4004400F0010005900120CDE90040BD
:100F100002900320084D03906946284601F0A0FA8C
:100F200001222146284601F098FB044803F0E2FC28
:100F300007B030BD3038024000000240C406002037
:100F4000022000F021B800001CB501A80090042385
:100F5000032215210B4803F0D3FD9DF804109DF8E2
:100F6000050001F00F0140EA012106480838016040
:100F70009DF806209DF8071002F00F0241EA0221B9
:100F800041601CBDC406002002461521014803F043
:100F9000FBBD0000C40600200B4602461521014897
:100FA00003F054BEC406002070B50A4D4FF400444F
:100FB00000222146284601F050FB0A2001F09AF950
:100FC00001222146284601F048FBBDE8704064201C
:100FD00001F090B9000002400321E520FFF7DCBFDB
:100FE000FFF7E2BF08B5174D174F184C4FF0FF3809
:100FF0000026434600220221286824F0C3FE800711
:10100000F7D58DF80060012300226946386824F086
:101010007DFF00F073F840B105F05AFA8068A042F5
:1010200003D00B4805F060FAE3E700F067F800280A
:10103000DFD105F04DFA8068A042DAD105F0FAF967
:10104000D7E70000680000205400002024010020A1
:10105000180100207FB505F03BFA80681E498842E0
:1010600036D11E4D02A8296888471D489DF80D20DD
:10107000194C01788A4208D002701AA1684606F01D
:1010800029FD694660691CF0ABFB18489DF80C20EF
:1010900001788A4208D0027012A1684606F01AFD53
:1010A000694620691CF09CFBA86A8047104D0146E8
:1010B0002870401E63280CD8606815F046FA2A781C
:1010C0000CA1684606F006FD6946E0681CF088FB46
:1010D0007FBD002028707FBD240100207800002003
:1010E0004502002025303264000000004402002048
:1010F0004902002025326425250000000121014815
:1011000001F09EBA000002400EB50025DFF8B09055
:10111000DFF8B0802C4FDFF8B4A02E464FF47A7B76
:101120006423022201214C46D9F8000024F02AFE53
:10113000C00719D00121206824F0C5FD2448048887
:10114000601EB0F5027F0FD2224881780379C27801
:101150008DE80E004378027821461FA006F0AAFC15
:1011600021461C4800F050F8D8F8000038B10023A0
:101170001A46694624F06CFE08B900F08BF924F099
:1011800032FE0446401B584504D3254600F01EF9A4
:1011900000F09CF8387818B10020387000F0DEF8C4
:1011A0009AF800000028BBD0A01BC828B8D3154867
:1011B000264690F84D000028B2D000F01BF9AFE7AA
:1011C000680000206400002070000020F000002073
:1011D00006000020700C00205B434F4D4D5D2072D7
:1011E000782025643A202530325820253032582086
:1011F00025303258202530325820253032580D0AFB
:10120000000000006811002070B5052931D3027874
:10121000AA2A2ED142884578531D994229D3817834
:10122000C378041D59406940002303E0E65C714027
:101230005B1C9BB29342F9D310440079884218D1C9
:10124000803D052D15D2DFE805F003090D153600A8
:1012500000F0BCF8BDE8704000F038B8BDE8704060
:1012600000F07CB8002A04D0207800B10120164993
:10127000087070BD062AFCD320786428F9D2617802
:101280000029F6D00C29F4D8A278002AF1D01F2A20
:10129000EFD8E378172BECD823793B2BE9D8637987
:1012A0003B2BE6D805F0ACFA62792179E078BDE80D
:1012B000704005F0BFBA00F089F800F007F8BDE80B
:1012C000704000F0B9B80000F00000201CB50D48D7
:1012D00090F84D108DF8001010F84E1F8DF8011089
:1012E00081890A0A8DF802208DF80310808A06226F
:1012F000010A8DF804108DF805006946032000F0FE
:1013000003F81CBD78000020F0B4B2F5007F1ED8B1
:10131000104CAA23150A23706070D3B2A3706B40DF
:101320004340E570002006E026180D5C35710D5C29
:101330006B40401C80B29042F6D3A018521D03713E
:10134000F0BC92B2C8230349034802F02FBFF0BC9F
:1013500070470000DC0E0020280B00201CB513484D
:101360000822694600788DF80000114800788DF851
:101370000100104800788DF802000F4800788DF8C1
:1013800003000E4800788DF804000D4800788DF8B1
:1013900005000C4800788DF806000B4800788DF8A1
:1013A00007000120FFF7B0FF1CBD0000480300202C
:1013B00049030020870300208803002084030020C5
:1013C000850300208603002089030020084908B512
:1013D000488E020A8DF800208DF80100087F8DF8F4
:1013E0000200032269460420FFF78EFF08BD0000BB
:1013F0007800002010B5A0B00A4B00206A461918EA
:1014000002EB400491F90D1002F81010090A401C7B
:1014100061704028F3DB802269460220FFF774FFE9
:1014200020B010BD6811002001B5012269460520D9
:10143000FFF76AFF08BD000000B589B000226946C9
:10144000134801F033FE002207A9114801F00CFEF9
:101450009DF81F008DF814009DF81D008DF81500F3
:101460009DF81E008DF816009DF800008DF81700FD
:101470009DF801008DF818009DF802008DF8190004
:10148000062205A91046FFF73FFF09B000BD000086
:10149000080A0020002211468620FFF735BF000011
:1014A000014800F0B5BD0000800A0020014800F0AE
:1014B000AFBD00006C0B0020014800F0A9BD00008A
:1014C000CC0B002001681823CAB2103AB2FBF3F229
:1014D000054B6FF30901032A9B5CC36500D9091D05
:1014E000816508467047000078B0040810B50146D1
:1014F00000208B698A6A4FF0C07453B1B3F5005F66
:1015000015D072B1012A0CD0022A0AD0032A09D1BF
:1015100004E01AB1012A06D0022A03D1C96AC9011E
:1015200000D5012010BDC96AA142FAD010BD002A21
:10153000F7D0012AF2D0022AF3D0032AF3D010BD4B
:1015400030B50468256825F480252560046863604B
:101550008368402B036803D099600068C26030BD87
:101560009A600068C16030BD0EB5264E264C00253D
:101570008DF808500123002202A9306824F068FC8D
:1015800078BB94F835008DF8000020480222102125
:1015900000788DF80100684605F093FC002201A94F
:1015A0001B4801F061FD03222021684605F074FC10
:1015B0009DF800009DF80610884216D094F830007F
:1015C00010B9A16C002088479DF806008DF8000036
:1015D0008DF802508DF8015003222021684605F055
:1015E00070FC642024F062FBC2E7606C80479DF8C9
:1015F00006108DF800108DF80200000A8DF8010029
:10160000EAE700005C000020780000208401002050
:10161000080A0020704708B50A200BF0E3F86A4674
:1016200002210020FFF706FC9DF80000552803D199
:101630009DF80100AA2821D055208DF80000AA208D
:101640008DF801000A200BF0CDF86A460221002037
:10165000FFF7FCFB002000900A200BF0C3F86A465D
:1016600002210020FFF7E6FB9DF80000552803D17A
:101670009DF80100AA2801D0012008BD002008BD66
:10168000FFF7C6BB10B5292000F00CF84FF6FF712C
:1016900001EA0024282000F005F8204310BD0020B6
:1016A000AFF3008002462421014803F06DBA000028
:1016B000440700200B4602462421014803F0C6BA25
:1016C0004407002010B5052404E0642000F012FE59
:1016D000641EE4B2FFF7E3FF362802D0002CF4D1F9
:1016E00006E02CB100210120FFF7E4FF002010BD2F
:1016F000012010BD10B5052404E0642000F0FAFDBF
:10170000641EE4B2FFF7CBFF362802D0002CF4D1E0
:1017100006E02CB108210120FFF7CCFF002010BD0E
:10172000012010BD38B519480524016841F00201B7
:101730000160006800F002000090154803F0DAF83C
:1017400004E0642000F0D6FD641EE4B2FFF7A7FFBA
:10175000362802D0002CF4D116E0ACB100210120D3
:10176000FFF7A8FF00210820FFF7A4FF7F210A2030
:10177000FFF7A0FF47210D20FFF79CFF00210E205F
:10178000FFF798FF002038BD012038BD30380240F7
:1017900044070020054810B5006810B1022124F06C
:1017A000C7FABDE81040012000F04EBE68000020DE
:1017B000064810B5006810B1042124F0B9FABDE85C
:1017C00010404FF4805000F03FBE00006800002041
:1017D000102000F039BE202000F036BE7CB50F4C42
:1017E0000F4DB4F862005A3400EB8000400001B2A3
:1017F000A8681AF069FE22890AA1684606F06AF90B
:10180000694628691BF0ECFF228807A1684606F0AC
:1018100061F96946E8691BF0E3FF7CBD78000020B0
:10182000500100203A2564003A25646D0000000054
:101830007CB5104C104D002214F84D1F686815F04F
:1018400008F961780022A86815F003F922780BA145
:10185000684606F03FF96946E8681BF0C1FF627808
:1018600006A1684606F036F9694628691BF0B8FFFC
:101870007CBD0000780000201C02002025640000D0
:1018800072B6FEE7014800787047000000070020AC
:1018900010B51E4C28B1014614222046FEF779FDF2
:1018A00010E09FED1B0AF7EE080A84EC020A4FF4E1
:1018B000FA60DFED180AC4ED020AA0818010E08111
:1018C00084ED040AD4ED000A9FED130A13480021A9
:1018D00060EE800A6422FDEEE00AC0ED030AD4ED5A
:1018E000010A20EE800AF2EE040ABDEEC00A80ED85
:1018F000040A94ED020A20EE200ABDEEC00A80ED33
:10190000050A0170C0E90121417010BDE4100020FA
:101910003333333F000034420000C8420007002048
:10192000F0B589B003AA02A901A804F0EDFA0028D5
:1019300076D108AA07A906A804F038FB05A904A8CF
:1019400004F0FBFA9DED040ADFED450ABDF8042022
:10195000BDF8080020EE200ABDF80C10BDEEC00A4C
:1019600010EE106A9DED050A20EE200ABDEEC00AB9
:1019700010EE105A12FB02F210FB002011FB0101C5
:101980000027002901DC384608E0084600E0104640
:1019900091FBF0F2024452108242F8DB642148438A
:1019A000304CC11700EB91406168B322C1EBA0300D
:1019B0005043C21700EB126001EB2020606000F082
:1019C00051FE22782AB12849012A08D0022A29D1B9
:1019D00012E0E2686168914224DA012109E0A2681C
:1019E0008989821A8A421CD822696168914219DD6C
:1019F00002212170A06015E0A268C989801A88427E
:101A000010D9284612F06AFD6169884205DC30462B
:101A100012F064FD6169884203DD0320207001E05B
:101A20001BE027706078002817D027780FA011A33B
:101A300013A215A1012F04D0022F04D0032F04D02C
:101A400004E0184602E0104600E0084600902B46ED
:101A5000324610A0616806F02DF809B0F0BD000014
:101A6000713D0F4400070020E41000204E4F524DFE
:101A7000414C00004652454546414C4C0000000098
:101A8000494D504143540000434F4E4649524D4545
:101A90004400000044543A6163633D256C64207245
:101AA0006F6C6C3D256C642070697463683D256CB7
:101AB000642073746174653D25730D0A0000000095
:101AC0000248002101706421416070470007002036
:101AD00070B5022005F054F80546012005F050F8D5
:101AE0000446002005F04CF844EA002145EA0120B4
:101AF000010201D540F07F4070BD70B5052005F0B2
:101B00003FF80546042005F03BF80446032005F0A5
:101B100037F844EA002145EA0120010201D540F0EE
:101B20007F4070BD78B50024009490F83C20012AD5
:101B300019D0012280F83C200A6807230568092A89
:101B400013D9EE680A3A02EB420293409E43EE60DC
:101B50000B788A680A3B03EB43039A400368DD680D
:101B60002A43DA6010E0022078BD2E6902EB4202BF
:101B700093409E432E610B788A6803EB43039A409F
:101B800003681D692A431A614A681F23072A13D272
:101B900005686E6B521E02EB820293409E436E6399
:101BA0000A8893B20A79521E02EB820293400268BD
:101BB000556B2B43536327E005680D2A12D22E6B19
:101BC000D21F02EB820293409E432E630B790A8858
:101BD000DB1F92B203EB83039A4003681D6B2A4319
:101BE0001A6311E0EE6A0D3A02EB820293409E43C3
:101BF000EE620B790A880D3B92B203EB83039A40A5
:101C00000368DD6A2A43DA621B4B0568194A9D4264
:101C10000AD10D68122D07D1556825F400055560CD
:101C2000556845F48005556005689D421DD1134DEA
:101C30000B68AB4201D0112B17D1536823F48003FA
:101C40005360536843F4000353600968A9420CD100
:101C50000B490C4A0968B1FBF2F101EB8101490023
:101C600000E0491E00910029FBD180F83C40002093
:101C700078BD000000230140002001401200001048
:101C8000B406002040420F000068C06C704770B579
:101C900004004FF0000503D0206C002610B107E0CF
:101CA000012070BD204600F01DF8666484F83C6099
:101CB000206CC00610D4206C20F4885040F0020044
:101CC00020642046FEF78AFE6664206C20F0020045
:101CD00040F00100206400E0012584F83C602846C3
:101CE00070BD000010B586B0044614216846FEF7AA
:101CF00069FB1149206888421CD110480021026804
:101D000042F480720260006800F4807005900B4815
:101D10001438026842F001020260006800F001001D
:101D20000590022000900320CDE901016946044896
:101D300000F096FB06B010BD002001404438024080
:101D4000000002402DE9F041044600680D4681681C
:101D50004FF0000749050BD58068C00508D5206CF9
:101D600040F02000206484F83C700120BDE8F08140
:101D700000F078FC064613E0681C11D025B100F095
:101D800071FC801BA8420BD920680068800707D42B
:101D9000206C40F00400206484F83C700320E5E7E8
:101DA000206800688007E7D521686FF0120008609E
:101DB000206C40F4007020642068816811F0405F5E
:101DC00013D1217E89B9C16A11F4700F02D08068E5
:101DD00040050AD4206C20F480702064206CC0047C
:101DE00003D4206C40F0010020640020BEE7000016
:101DF00018B50021009190F83C20012A07D001225B
:101E000080F83C2002689368DB0702D011E00220D2
:101E100018BD936843F001039360244A244B126871
:101E2000B2FBF3F202EB420200E0521E0092002AE3
:101E3000FBD102689368DB072ED0036C40F201648B
:101E4000A34343F48073036453685B0505D5036CB7
:101E500023F4005343F480530364036CDB0404D580
:101E6000436C23F00603436400E0416480F83C10B7
:101E700010496FF02203136049680068C90602D058
:101E80000D49884210D1816811F0405F0CD1816802
:101E900041F08041816007E0016C41F01001016474
:101EA000416C41F001014164002018BDB4060020DE
:101EB00040420F00002301400020014090F83C10F8
:101EC00001290CD0012180F83C1001688A6822F0B9
:101ED00001028A6001688968C90702D007E0022010
:101EE0007047016C21F4885141F001010164002127
:101EF00080F83C10084670472DE9F0410446876D94
:101F000000F0B0FB064694F835000025022806D004
:101F10008020606584F834500120BDE8F08120689D
:101F2000016821F0160101602068416921F08001FB
:101F30004161206C08B9A06C20B12068016821F0D3
:101F4000080101602068016821F0010101600CE0D6
:101F500000F088FB801B052807D92020606503203E
:101F600084F8350084F83450D7E720680068C0074B
:101F7000EED194F85C103F208840B860012084F8CE
:101F8000350084F834500020C7E790F83510022956
:101F900003D08021416501207047052180F835106C
:101FA0000068016821F0010101600020704770B5F0
:101FB00004002BD094F83500022826D02068016850
:101FC00021F001010160206800250560206845605E
:101FD000206885602068C56020680561216821202F
:101FE00048612046FFF76EFAE56325646564A564E1
:101FF000E564256594F85C203F219140816065652A
:1020000084F8355084F83450002070BD012070BD34
:102010002DE9F84304464FF00009CDF800906348DD
:102020004FF41651A56D0068B0FBF1F72E6894F8D7
:102030005C10082000FA01F131420FD021680A68D3
:1020400052070BD50A6822F004020A6094F85C106B
:102050008840A860606D40F00100606594F85C10F5
:102060004FF0010808FA01F0304208D021684969B0
:10207000090604D5A860606D40F00200606594F820
:102080005C1004208840304208D021680968890724
:1020900004D5A860606D40F00400606594F85C10A1
:1020A00010208840304218D021680968090714D5EB
:1020B000A86020680168490304D50068000308D5BA
:1020C000A16C07E00168C90503D4016821F008018B
:1020D0000160216C09B12046884794F85C102020EB
:1020E0008840304231D021680968C9062DD5A860E2
:1020F00094F8350005282068016806D0490347D5C3
:10210000006800031DD4616C1CE021F01601016021
:102110002068416921F080014161206C08B9A06C00
:1021200020B12068016821F00801016094F85C107A
:102130003F208840A86084F8358084F83490216D71
:102140001FE0E16B09B120468847606D00282BD065
:10215000606DC00714D0052084F835002068016840
:1021600021F0010101600098401C0090B84203D8A2
:1021700020680068C007F6D184F8358084F8349070
:10218000E16C002910D001B02046BDE8F0430847BB
:102190000168C905D5D4016821F01001016084F8F7
:1021A000358084F83490CCE7BDE8F883B40600208D
:1021B0002DE9F041044600F055FA06465CB10220D4
:1021C00084F83500002584F834502068016821F037
:1021D000010101600DE00120BDE8F08100F042FA4C
:1021E000801B052805D920206065032084F8350070
:1021F000F2E720680068C007F0D122681168204823
:102200000140D4E901031843D4E9033633431843AA
:1022100063691843A3691843E3691843236A1843A1
:102220000843616A042903D1D4E90B131943084315
:10223000106020684069666A20F0070130460E434E
:10224000012704280CD1A06A0643E06A40B1204669
:10225000FFF74CF920B14020606584F83570BAE78B
:10226000206846612046FFF72DF994F85C203F2155
:1022700091408160656584F835700020ACE700000E
:102280003F8010F02DE9F0410446866D90F834004F
:10229000002501280DD0012084F8340094F8357011
:1022A0000020012F07D084F8340002252846BDE81D
:1022B000F0810220FBE7022784F835706065204634
:1022C000FFF73EF994F85C103F208840B06020682A
:1022D000016841F016010160206C20B1206801689E
:1022E00041F0080101602068016841F001010160CE
:1022F000DCE7000070B5044600F0B4F90546601C48
:1023000002D004480078044400F0ACF9401BA0421D
:10231000FAD370BDA80600202DE9F04F0022DFF8A7
:1023200008B101264FF00F0906FA02F401EA04038E
:10233000A34274D122F003075F44D7F808889507B9
:102340004FEA157C09FA0CFA0AEA0805DFF8DC8086
:10235000404502D14FF000081DE0DFF8D480404531
:1023600002D14FF0010816E0DFF8C880404502D1E5
:102370004FF002080FE0DFF8C080404502D14FF077
:10238000030808E0DFF8B480404502D14FF00408AC
:1023900001E04FF0070808FA0CF8A84522D1284DB3
:1023A000D5F800C02CEA030CC5F800C02D1DD5F8E7
:1023B00000C02CEA030CC5F800C0214D0C35D5F83F
:1023C00000C02CEA030CC5F800C02D1FD5F800C0D2
:1023D0002CEA030CC5F800C0D7F8085825EA0A050E
:1023E000C7F80858056857000323BB409D430560A4
:1023F000D50800EB8505D5F820C057074FEAD76808
:1024000009FA08F72CEA070CC5F820C0C5689D43F7
:10241000C5604568A543456084689C438460521C40
:10242000102A81D3BDE8F08F003001400000024047
:102430000004024000080240000C0240001002406C
:10244000003C014070470000044910B50A68024290
:1024500002D00860FFF7F6FF10BD0000143C0140F9
:102460002DE9F84FDFF8B8A10022012403254FF031
:102470000F090AF1040BAAF1040E00BF0B6804FA5D
:1024800002F63340B34273D10F7907F00307012FEF
:1024900001D0022F16D187684FEA420805FA08FCDE
:1024A00027EA0C07D1F80CC00CFA08FC4CEA070C20
:1024B000C0F808C04768B7430E79C6F300169640C7
:1024C0003E4346600E79F643B6070DD0C768560006
:1024D00005FA06FC27EA0C07D1F808C00CFA06FC3E
:1024E0004CEA070CC0F80CC00E7906F00306022E69
:1024F00010D1D60800EB8608D8F8206057074FEABD
:10250000D76C09FA0CF7BE430F6907FA0CF737438B
:10251000C8F8207006684FEA420C05FA0CF7BE4373
:102520000F7907F0030707FA0CF7374307604E6887
:1025300016F4403F6DD03B4E376847F48047376014
:10254000366822F0030706F480460096364E07EB05
:10255000060CDCF8086897073F0F09FA07F826EA27
:102560000806DFF8C880404503D14FF000081EE0A0
:102570004FE0DFF8BC80404502D14FF0010816E083
:10258000DFF8B080404502D14FF002080FE0DFF8DD
:10259000A880404502D14FF0030808E0DFF89C8096
:1025A000404502D14FF0040801E04FF0070808FA57
:1025B00007F848EA0608CCF80888DAF800605746B9
:1025C000D1F804C09E435FEACC2C00D51E433E6088
:1025D000DBF800605F46D1F804C09E435FEA8C2CB4
:1025E00000D51E433E60DEF800607746D1F804C097
:1025F0009E435FEA8C3C00D51E433E60084F083F77
:102600003E68D1F804C09E435FEACC3C00D51E432F
:102610003E60521C102AFFF431AFBDE8F88F000075
:10262000083C0140443802400030014000000240B4
:102630000004024000080240000C0240001002406A
:102640000069084000D001207047426921EA020376
:102650000A4043EA0241816170470AB181617047D3
:102660000904FBE70148806870470000A8060020C5
:10267000024881680278114481607047A8060020F2
:102680000B4810B5016841F400710160016841F424
:1026900080610160016841F480710160032000F0F5
:1026A000A9F80F2000F006F800F04AF8002010BD4D
:1026B000003C024030B505461C4887B00024016844
:1026C00041F001010160006806A900F001000090DE
:1026D00001A800F001FA00F02FFA1549154AB0FBE5
:1026E000F1F11548491E026040F2E732C0E90324C7
:1026F000C0E90114846101F079F8040012D10E4898
:1027000001F0A2F804000DD1192000F046F8102DB8
:1027100007D200222946192000F04CF8074805602E
:1027200000E0012407B0204630BD000044380240DC
:1027300040420F0000000140780E0020AC0600204F
:102740000C4882B0016841F480410160006800F4E7
:10275000804000900748001F016841F080510160EF
:102760000068002200F0805000900F21901E02B0FF
:1027700000F020B84438024000280DDB00F01F02B2
:10278000012191404009800000F1E020C0F8801153
:10279000BFF34F8FBFF36F8F7047002809DB00F046
:1027A0001F02012191404009800000F1E020C0F8A3
:1027B00000117047F0B40E4B1B680C46C3F30223A4
:1027C000C3F10705042D00D90425191D072901D2DD
:1027D000002300E0DB1E012606FA05F1491E214018
:1027E00099409E40761E16403143F0BC05F099B9E1
:1027F0000CED00E0064900F0070208684FF6FF0301
:10280000184040EA0220034A104308607047000065
:102810000CED00E00000FA050B4A136823F00303F7
:10282000034313600948026842F004020260012970
:1028300007D040BF20BF20BF016821F00401016024
:10284000704730BFF8E700000070004010ED00E076
:102850002DE9F843044600684FF00109C1074FF025
:10286000000601D1400729D5DFF82081C8F868604B
:10287000FFF7F8FE0746464D05E000BFFFF7F2FE02
:10288000C01B022859D828680001F7D4A068217B12
:10289000800140EA0170616808433D498431086065
:1028A000C8F86890FFF7DEFE074604E0FFF7DAFE9F
:1028B000C01B022841D828680001F7D5207880077E
:1028C00052D533484030016841F0805101600068C2
:1028D000304D00F080500090286840F480702860EF
:1028E000FFF7C0FE074604E0FFF7BCFEC01B02284E
:1028F00023D82868C005F7D5254D7035286810F411
:10290000407020D0218A01F4407181421BD0286898
:10291000214920F44070C1F800900E6028602868BA
:10292000C00710D0FFF79EFE064641F2883707E049
:10293000FFF798FE801BB84202D90320BDE8F88358
:1029400028688007F4D521691148C1F301220830B5
:10295000032A12D0016821F4F81101602868218A45
:10296000C1F30B01084328602078000703D50B4909
:10297000207DC1F8E0010020E0E70268084B22F466
:10298000F81219400A430260E8E7000000004742DD
:102990000038024000700040400E4742001047429D
:1029A000FFFCFF0F2DE9F0470E46050065D0DFF86C
:1029B0001481D8F80000F7B200F00700B04207D247
:1029C00088F80070D8F8000000F00700B04254D139
:1029D00028683D4C810712D5400703D5206840F494
:1029E000E05020602878000703D5206840F460405C
:1029F00020602068A96820F0F00008432060287853
:102A0000C0072DD0304968680839012812D0022843
:102A100013D0032811D00968890700292DDA21680D
:102A200021F0030101432160FFF71CFE814641F2C2
:102A3000883A0EE009688903EFE709688901ECE745
:102A4000FFF710FEA0EB0901514502D90320BDE8B4
:102A5000F0872068696800F00C00B0EB810FEFD1BF
:102A6000D8F80010404601F00701B14207D90770BD
:102A7000006800F00700B04201D00120E7E72878A5
:102A8000400705D52068E96820F4E050084320603D
:102A90002878000706D52068296920F4604040EABC
:102AA000C100206000F058F82168084AC1F3031102
:102AB000515CC8400649086006480068FFF7FAFD07
:102AC0000020C4E7003C02400838024080B00408FF
:102AD000B4060020AC0600200F2202600C4A1368E6
:102AE00003F003034360136803F0F003836013688B
:102AF00003F4E053C36012684FF4E05303EAD202D8
:102B000002610448006800F0070008607047000098
:102B100008380240003C0240044805490068096842
:102B2000044AC1F38221515CC8407047B4060020BA
:102B30000838024090B00408044805490068096854
:102B4000044AC1F34231515CC8407047B4060020CA
:102B50000838024090B00408154810B5006810F01D
:102B60000C02144813D01449042A0FD0082A0ED19D
:102B70000F4C241F2268236802F03F025B0207D536
:102B80002068C0F38810A0FB010106E0084610BDD4
:102B90002168C1F38811A1FB00010023FDF77AFB36
:102BA0002168C1F30141491C4900B0FBF1F010BD9F
:102BB000083802400024F40040787D012DE9F84FE8
:102BC00004006ED02078DFF84C93C007A9F104050B
:102BD0004AD009F104000168C1F38101012908D03C
:102BE0000068C0F3810002280AD1D9F80000400231
:102BF00006D52868800337D560680028E1D033E027
:102C00006068B0F5803F10D0B0F5A02F286810D0D4
:102C100020F480302860286820F4802028606068D4
:102C2000A8B1FFF71FFD06460DE0286840F480308C
:102C3000F4E740F480202860F7E700BFFFF712FDBB
:102C4000801B642873D828688003F7D50CE0FFF751
:102C500009FD064605E000BFFFF704FD801B642860
:102C6000F0D828688003F7D42078DFF8AC8280079A
:102C70004FF0000A3ED5A748001D016811F00C0F67
:102C800008D00068C0F3810002280BD1D9F80000F9
:102C9000400207D42868800716D5E068012800D1D3
:102CA00012E033E1E068B8B10120C8F80000FFF796
:102CB000D9FC064605E000BFFFF7D4FC801B0228C4
:102CC000C0D828688007F7D52868216920F0F80067
:102CD00040EAC10028600DE0C8F800A0FFF7C2FC80
:102CE000064604E0FFF7BEFC801B02281FD82868B8
:102CF0008007F7D42078000722D5864F874861697E
:102D0000703771B101210160FFF7ACFC064604E0A9
:102D1000FFF7A8FC801B022809D838688007F7D580
:102D20000EE0C0F800A0FFF79DFC064605E082E03B
:102D3000FFF798FC801B02287DD838688007F7D4FD
:102D40002078400768D5DFF8CCB100270BF13C0BA9
:102D5000DBF80000C0000BD4DBF8001041F080511C
:102D6000CBF80010DBF80000012700F08050009045
:102D70006B4E3068C00510D4306840F4807030600D
:102D8000FFF770FC009005E0FFF76CFC0099401A1B
:102D9000022850D83068C005F6D55E4EA0686C3663
:102DA00001280FD00528306810D020F001003060D5
:102DB000306820F004003060A068B8B1FFF752FC22
:102DC00000900FE0306840F00100F4E740F00400AC
:102DD0003060F7E7FFF746FC0099411A41F288306E
:102DE000814266D830688007F4D50EE0FFF73AFCE0
:102DF000009007E0FFF736FC0099411A41F2883055
:102E0000814256D830688007F4D42FB1DBF8001027
:102E100021F08051CBF80010A069C8B33D49091DCD
:102E20000968C1F3810102294AD00228504607D01F
:102E3000C8F8600000E03CE0FFF714FC04463BE00B
:102E40004746C8F86000FFF70DFC064605E000BFE6
:102E5000FFF708FC801B02282BD828688001F7D4D4
:102E6000D4E907010843A16A2E4A490802EB01414F
:102E7000626A41EA8211084394F82C1040EA016129
:102E8000C9F8001001203866FFF7ECFB044606E0A5
:102E90003EE000BFFFF7E6FB001B022809D82868C8
:102EA0008001F7D534E000BFFFF7DCFB001B0228F0
:102EB00002D90320BDE8F88F28688001F4D427E008
:102EC0000128F7D0D9F80000E26900F480019142AE
:102ED0001CD1226A00F03F01914217D147F6C07120
:102EE000626A0140B1EB821F10D1A26A4FF0FF333A
:102EF00000F4403103EB5202B1EB024F06D194F8DB
:102F00002C1000F07060B0EB016F01D00120D1E710
:102F10000020CFE70438024000004742800E4742BD
:102F2000007000400000FFFF0068503050F82100A2
:102F300070470068503040F8212070472DE9F8476D
:102F40008A4639494FF4FA4C91460F684FF47A7229
:102F5000B7FBFCF151430091017F012962D00125AB
:102F60000577022141770268CA2151620268532124
:102F7000516201688A684FF0000352054FF0FF0468
:102F80004FF0030608D5009AB2F10108CDF8008091
:102F900018D3CA685207F6D48A6822F480628A601D
:102FA0000168CA6802F0800262F49062CA60B7FBEE
:102FB000FCF14FF47A72514300910168009A571E58
:102FC000009705D24C62467703770320BDE8F88767
:102FD000CA685207F2D58A6822F007028A6001683F
:102FE0008A6842EA09028A600268C2F814A00F499E
:102FF0000A6842F480020A600C4908310A6842F407
:1030000080020A6001688A6842F480428A6001682E
:103010008A6842F480628A6001684C62457703776F
:103020000020D3E70220D1E7B4060020003C014095
:103030007047000010B504460068C068400509D517
:103040002046FFF7F5FF2068C16801F0800161F4B8
:103050009061C16003494FF48000086001206077EF
:1030600010BD0000143C014010B500680B464168DB
:103070000D480140080CD870C1F304245C7001F0C5
:103080003F049C70C1F34231197052B903F068FBE0
:10309000D870587803F064FB5870987803F060FBA0
:1030A0009870002010BD00003FFFFF0010B50B46D8
:1030B0000168896A596001680969C1F30E01996064
:1030C000006801680D480140C1F305401870C1F364
:1030D00006245C7001F07F049C70890DD97052B990
:1030E00003F03EFB1870587803F03AFB587098785C
:1030F00003F036FB9870002010BD00007F7F7F003A
:1031000010B5040002D0607F10B106E0012010BDB0
:1031100000202077204600F039F8022060772168EF
:10312000CA204862216853204862204603F02EFBE3
:1031300030BB20688168144A11408160216888682A
:1031400062681043D4E904231A431043886021685D
:10315000E068086120680169228941EA0241016151
:10316000204603F037FB58B921680A6C22F480220C
:103170000A6421680A6CA3691A430A640121617711
:103180002268FF21516210BDBFFF8FFF10B586B0CE
:10319000044618216846FDF715F90D492068884254
:1031A00014D102200090C00104906846FFF750FB44
:1031B00008B1FEF765FB07490120086000220521E0
:1031C0000320FFF7F7FA0320FFF7E7FA06B010BD78
:1031D000002800403C0E474270B50446007F0B4675
:1031E000012819D00126267702206077B2B198789D
:1031F000D97840EA014558781978000240EA413010
:1032000005432168CA20486221685320486220464D
:1032100003F0BCFAD0B122E0022070BD5878C1069C
:1032200003D500F0EF000A305870D87803F0A1FA07
:103230000204587803F09DFA42EA0022987803F0DD
:1032400098FA0243187842EA4035DAE70748054021
:1032500020684560204603F0BDFA00B96677226811
:10326000FF2151620021217770BD00003FFFFF0068
:103270002DE9F0410446007F0D46012823D04FF090
:10328000010884F81C80022060772068002780688D
:103290004FEA4060D2B1002800DBEF70A8782978AF
:1032A00040EA01466878E978000240EA8150064326
:1032B0002168CA204862216853204862204603F0F2
:1032C00065FAB8B12CE00220BDE8F081002800DBEF
:1032D000EF70287803F04DFA0204687803F049FA99
:1032E00042EA0022A87803F044FA0243E87842EA6E
:1032F0008056DDE70D48064020680660206881683A
:1033000021F480218160D5E90301084321688A689E
:1033100010438860204603F05DFA08B984F81D80E8
:103320002268FF2151622777CEE700007F7F7F0070
:1033300070B504460068C16821F0A001C160FFF7C4
:1033400091F905464FF47A7607E000BFFFF78AF956
:10335000401BB04201D9032070BD2068C0688006C0
:10336000F4D5002070BD704770B5040009D0606AC4
:10337000002540B125616561A56294F8510040B116
:103380000CE0012070BD6068B0F5827FF4D0E5618B
:10339000F2E784F85050204600F044F8022084F808
:1033A00051002068016821F040010160A088218956
:1033B00000F4827001F404410843A18901F4006122
:1033C0000843217C01F002010843217D01F0010145
:1033D0000843218B01F400710843217F01F038017B
:1033E000084394F8201001F080010843218D01F476
:1033F0000051084321680860A069042101EA1040D7
:1034000094F8241001F010010843216848602068F6
:10341000C16921F40061C1616565012084F8510032
:10342000002070BD70B586B0064614216846FCF7D2
:10343000C9FF1F493068884238D11E4800250168FD
:1034400041F480510160006800F4805005901948F3
:103450001438016841F0020101600068694600F01B
:1034600002000590282000900220CDE901050320EC
:103470000390052004901048FEF7F2FF104C0F480F
:1034800020604FF0806060604020C4E902050001C8
:10349000C4E90405A561E561256220466562FEF781
:1034A00087FE08B1FEF7ECF9B464A66306B070BD00
:1034B00000300140443802400004024040640240B1
:1034C000800A00202DE9F84F044690F850000027AC
:1034D0001D461646894601280DD04FF0010B84F891
:1034E00050B0FFF7BFF8804694F85100BA46012863
:1034F00004D0022793E00220BDE8F88FB9F1000F55
:1035000073D0002E71D0032084F85100C4F854A069
:10351000C4F83090A686E686C4F838A0A4F83CA08B
:10352000A4F83EA0C4F844A0C4F840A0A068B0F538
:10353000004F09D12068016821F040010160206836
:10354000016841F48041016020680168490603D4A4
:10355000016841F040010160E068B0F5006F60680B
:1035600003D030B3012E24D041E008B1012E1CD18C
:10357000206B21680088C86006E0206881688907A0
:1035800009D5216B0988C160206B801C2063E08E07
:10359000401EE08609E0FFF765F8A0EB0800A842AE
:1035A00002D3681C01D031E07DB3E08E0028E4D165
:1035B00020E0206B21680078087306E020688168AD
:1035C000890709D5216B09780173206B401C2063A2
:1035D000E08E401EE0860AE0FFF744F8A0EB08000A
:1035E000A84203D3681C02D010E017E06DB1E08E52
:1035F0000028E3D142462946204603F039FA08B1B3
:1036000020206065A06818B106E0FFE7032706E008
:103610002068C16880680090606D00B1012784F85F
:1036200051B084F850A0384666E700002DE9F0411B
:10363000044690F850000026012809D0012784F89C
:10364000507094F851000025012804D002264EE065
:103650000220BDE8F08189B182B1032084F85100D5
:1036600065652163A286E286A56365642564A587F6
:10367000E587A068B0F5004F02D00BE0012636E0E8
:103680002068016821F0400101602068016841F470
:1036900080410160A16C18480864A16C1748C86398
:1036A000A16C1748C864A06C0565E38E2268216B85
:1036B0000C32A06CFEF7E6FD38B1606D40F01000F2
:1036C0006065012684F8517011E0206801684906A0
:1036D00003D4016841F0400101602068416841F075
:1036E000200141602068416841F00201416084F896
:1036F00050503046ADE70000036A00080D6A00082C
:10370000E169000800680649884207D18168090616
:10371000FCD404480068002800D00047704700002F
:1037200000300140B806002070474FF0E021042827
:10373000086903D020F004000861704740F00400DD
:10374000FAE710B5401EB0F1807F01D3012010BD13
:103750004FF0E02460610F21601704F0E2F90020CF
:10376000A06107202061002010BD70477047000055
:1037700070B590F83C20012A2CD0012480F83C4000
:10378000022280F83D2003685A689D6822F0700686
:103790000A6832435A60104B02689A420ED0B2F166
:1037A000804F0BD00D4B9A4208D00D4B9A4205D05A
:1037B0000C4B9A4202D00C4B9A4204D1496825F036
:1037C00080031943916080F83D40002180F83C104F
:1037D000084670BD022070BD00000140000400409A
:1037E00000080040000C00400040014010B50400FB
:1037F00003D094F83D0010B107E0012010BD002077
:1038000084F83C00204600F01EF8022084F83D00B9
:10381000211D206803F0A2FC012084F8460084F8F2
:103820003E0084F83F0084F8400084F8410084F8AA
:10383000420084F8430084F8440084F8450084F88A
:103840003D00002010BD704790F83D10012901D0C7
:1038500001207047022180F83D100168CA6842F0DB
:103860000102CA6000680E4988420ED0B0F1804F54
:103870000BD00C49884208D00B49884205D00B492F
:10388000884202D00A49884204D1816801F00701C8
:10389000062903D0016841F0010101600020704752
:1038A000000001400004004000080040000C0040FF
:1038B00000400140704770B50446006801694FF050
:1038C0000005C943890715D4C168C943890711D4C4
:1038D000E91E016101202077206880698007204669
:1038E00002D0FFF7E7FF04E000F0C0F8204600F048
:1038F00065F9257720680169C943490717D4C1686C
:10390000C943490713D46FF00401016102202077F5
:103910002068806910F4407F204602D0FFF7CAFF7C
:1039200004E000F0A3F8204600F048F9257720686D
:103930000169C943090716D4C168C943090712D4EC
:103940006FF008010161042020772068C0698007BA
:10395000204602D0FFF7AEFF04E000F087F82046D3
:1039600000F02CF9257720680169C943C90617D4EE
:10397000C168C943C90613D46FF010010161082062
:1039800020772068C06910F4407F204602D0FFF7FE
:1039900091FF04E000F06AF8204600F00FF9257767
:1039A00020680169C943C90708D1C168C943C9076B
:1039B00004D1891E0161204600F05AF9206801698E
:1039C000C943090609D4C168C943090605D46FF083
:1039D000800101612046FFF7C8FE20680169C943E4
:1039E000490609D4C168C943490605D46FF04001AE
:1039F0000161204600F046F920680169C943890643
:103A00000BD4C168C943890607D46FF02001016156
:103A10002046BDE87040FFF7A9BE70BD10B586B066
:103A2000044614216846FCF7CDFC0D492068884205
:103A300014D10C480021026842F0020202600068C2
:103A400000F002000590012000900220CDE9010164
:103A5000CDE9031069460448FEF702FD06B010BD2B
:103A6000000400403038024000040240704770B546
:103A7000044690F83C0000260D4601280FD0012096
:103A800084F83C006AB1042A1DD0082A2FD00C2AE1
:103A90003FD00126002084F83C00304670BD022053
:103AA00070BD206803F0B4FB2068816941F0080113
:103AB00081612068816921F0040181612068816948
:103AC0002A69114311E0206803F0CAFB206881696C
:103AD00041F4006181612068816921F48061816124
:103AE000206881692A6941EA02218161D2E7206860
:103AF00003F0E2FB2068C16941F00801C161206860
:103B0000C16921F00401C1612068C1692A691143BA
:103B100011E0206803F0FCFB2068C16941F40061FA
:103B2000C1612068C16921F48061C1612068C169F7
:103B30002A6941EA0221C161ACE710B5040003D053
:103B400094F83D0010B107E0012010BD002084F87A
:103B50003C00204600F01EF8022084F83D00211DA4
:103B6000206803F0FBFA012084F8460084F83E0048
:103B700084F83F0084F8400084F8410084F8420053
:103B800084F8430084F8440084F8450084F83D003C
:103B9000002010BD08B500680649884208D10648D3
:103BA000016841F002010160006800F0020000902D
:103BB00008BD00000004004040380240704700008B
:103BC00010B50446022249B104290ED0082913D0A9
:103BD00094F84100012816D0012010BD94F83E0051
:103BE0000128F9D184F83E200FE094F83F00012825
:103BF000F2D184F83F2008E094F840000128EBD18E
:103C000084F8402001E084F841200122206803F07C
:103C1000F1FA12492068884203D1426C42F4004212
:103C20004264206888420ED0B0F1804F0BD00C491E
:103C3000884208D00B49884205D00B49884202D0FF
:103C40000A49884204D1816801F00701062903D09E
:103C5000016841F001010160002010BD0000014039
:103C60000004004000080040000C004000400140FB
:103C700000680349884201D1FEF7FABC7047000092
:103C8000000001407047704710B504460068406965
:103C900094F83D10C0F3C010212911D180B12068E3
:103CA000143050E8001F21F0800140E80012002A83
:103CB000F5D1606B08B1FEF71FF9204603F008FC50
:103CC0002068406994F83E10C0F38010222911D179
:103CD00080B12068143050E8001F21F0400140E816
:103CE0000012002AF5D1A06B08B1FEF705F92046B5
:103CF00003F0C7FB002010BD70470000F8B5016855
:103D000004460868CA684B6910F00F0F4FF00005B1
:103D100059D003F0010602F49077374365D0C1070C
:103D200005D0D10503D5216C41F001012164410783
:103D300005D5D90703D0216C41F002012164810728
:103D400005D5D90703D0216C41F004012164010796
:103D500007D502F02001314303D0216C41F0080166
:103D60002164216C00293AD0800604D5900602D542
:103D7000204603F0BBFB20684069216CC0F3801033
:103D8000090700D460B3204603F07BFB206840693C
:103D9000400621D52068143050E8001F21F0400172
:103DA00040E80012002AF5D1A06BA8B16C4901656A
:103DB000A06BFEF7EAF8002811D0A06B016D01B0EE
:103DC000BDE8F040084783060FD593060DD5204681
:103DD000BDE8F84003F08ABB2046FFF78DFFF8BD31
:103DE0002046FFF789FF2564F8BD266B2023012EAE
:103DF00079D1C60677D5D60675D50868486800908B
:103E00004869400640D5A16B086840680004000C72
:103E1000EAD0A28D8242E7D9E085C869B0F5807FFB
:103E20002DD020680C3050E8001F21F4807140E84C
:103E30000012002AF5D12068143050E8001F21F04C
:103E4000010140E80012002AF5D12068143050E842
:103E5000001F21F0400140E80012002AF5D184F84B
:103E60003E30256320680C3050E8001F21F010011F
:103E700040E80012002AF5D1A06BFEF73DF8A08DB6
:103E8000E18D401A81B229E0A08DE18D401A81B206
:103E9000E08D0028A8D00029A6D020680C3050E87A
:103EA000002F22F4907240E80026002EF5D1206801
:103EB000143050E8002F22F0010240E80026002EC6
:103EC000F5D184F83E30256320680C3050E8002F8F
:103ED00022F0100240E80023002BF5D12046FFF726
:103EE000D2FEF8BDFFE705062BD5150629D594F8B7
:103EF0003D002128F5D1A068B0F5805F01D120698F
:103F0000B0B1206A411C2162216800784860E08CD1
:103F1000401E0004000CE084E3D12068C16821F059
:103F20008001C1602068C16841F04001C160D8E7EC
:103F3000206A0088C0F308004860206A801C206264
:103F4000E5E74006CDD55006CBD5CA68204622F01D
:103F50004002CA6084F83D3000F081F9C1E70000FA
:103F60008D73000870B5040004D094F83D0000255E
:103F700010B106E0012070BD84F83C50204600F0EE
:103F800057F8242084F83D002068C16821F40051CE
:103F9000C160204603F00AFB2068016921F49041CA
:103FA00001612068416921F02A0141612068C168EE
:103FB00041F40051C1602564202084F83D0084F85C
:103FC0003E00002070BD000010B504460068144992
:103FD000144A884211D11448016821F0100101608F
:103FE0004FF4C0611046FEF797F9A06BFDF7DFFFB5
:103FF000606BFDF7DCFF25200DE00C4988420ED1F7
:104000000948001F016821F4003101600C211046AD
:10401000FEF782F92620BDE81040FEF7ADBB10BDCB
:1040200000100140000002404438024000440040BB
:104030002DE9F04186B0064614216846FCF7C2F926
:10404000DFF820C131684848022203230727474D83
:104050000024614557D144491431D1F800C04CF0D7
:10406000100CC1F800C0096801F010010591016849
:1040700041F0010101600068694600F0010005900F
:1040800058028DE81500CDE903372846FEF7E8F918
:10409000384D37484FF000672860C5E901744FF488
:1040A0008068C5E903486C61AC61EC612C6228460C
:1040B0006C62FEF77DF808B1FDF7E2FBB563AE6315
:1040C0002C4D2B4860353030E5E802074020A5E84C
:1040D0001101284845F814496030AC61EC612C624C
:1040E0006C62FEF765F808B1FDF7CAFB7563002244
:1040F0000F212520AE63FEF75DFB2520FEF74DFB6B
:1041000006B0BDE8F081DFF870C06145F8D116490E
:104110001031D1F800C04CF4003CC1F800C009686F
:1041200001F400310591016841F00101016000686E
:10413000694600F0010005900C208DE81500CDE9DE
:1041400003372846FEF78CF9002205212620FEF7CA
:1041500031FB2620FEF721FB3068C16841F02001C9
:10416000C160CDE70010014030380240000002403D
:10417000886402406C0B00200044004090F83E3000
:10418000202B0ED159B152B190F83C30012B08D000
:10419000012380F83C300023036303F08DBA012033
:1041A0007047022070477047704700002DE9F843C0
:1041B000044690F83D001F4616460D4620284CD177
:1041C000C5B1BEB194F83C00012846D0012084F866
:1041D0003C004FF00008C4F84080212084F83D00E6
:1041E000FEF740FAA6848146E684A068B0F5805FB9
:1041F00003D004E00120BDE8F883206928B12E46F1
:104200005FF0000584F83C800EE00026FAE780218C
:10421000204603F09BFAA0B9AEB116F8010B216855
:104220004860E08C401EE084E08C4B464FF000027A
:1042300000970028EBD14FF04001204603F086FAAA
:1042400030B10320D7E735F8020BC0F30800E6E7EA
:10425000202084F83D000020CDE70220CBE7704706
:1042600008B50020184E194FDFF86480194C8DF8FE
:10427000000000BF02F02CF98068B0421FD101237A
:1042800000226946386821F041FEFDF733FA94F8C0
:104290006C00A0B92BF0E8FDFDF7F4F9D8F8001098
:1042A00000F01AF8C5B22CF0D1FC94F86D00A842C9
:1042B00005D0322D03D9782D01D284F86D503220EB
:1042C00021F0F4FCD6E70000240300205400002075
:1042D000740000207800002070B504460D462B487D
:1042E00010F0E6FF10B1294808F0A0FA2748203066
:1042F00010F0DEFF18B12548203008F097FA234867
:10430000403010F0D5FF18B12048403008F08EFA48
:1043100021461E480EF042F81C48294620300EF077
:104320003DF81A481A4CD0E9032191422CD38268F7
:10433000914229D34268914226D94269914223D3BE
:104340008269914220D3C06981421DD90F48A11CC6
:10435000203002690888131AB3F5D57F14D348803A
:1043600092B20A80101A4EF6602191FBF0F10748D4
:1043700040300EF013F805484030C16921B10721E3
:10438000001D00F0A9FA2070207870BDF810002000
:1043900050070020034A92F84C20002A01D1FCF774
:1043A000C9BB704778000020FCF7ACBB00F0DEBC56
:1043B00000F0E4BC00F0EABC02F0F2BB01F09AB8F5
:1043C00001F0ECB8FDF7AEB9FDF77CB900F0AEBF77
:1043D00008B500200090054890F8300010B96846F4
:1043E00008F0ADFB009880B208BD00007800002006
:1043F00020F008BE044991F8301011B14FF0FF30A1
:10440000704708F0F5BB000078000020024900204A
:1044100081F8350070470000780000200249012033
:1044200081F83500704700007800002002F092B853
:1044300002F016B97047000010B586B004001FD016
:10444000002269460F48FEF731FE002205A90D48FB
:10445000FEF70AFE9DF81700E0709DF815106170D8
:104460009DF81620A27014232BF0E0FD20709DF81B
:10447000000020719DF8010060719DF80200A0719C
:1044800006B010BD080A002002F0BAB902F0D2B995
:1044900010B5012901D0022903D1401E0C31C0B250
:1044A000C9B21A24491C11FB04F10A24B1FBF4F12E
:1044B00000EB900000EB930008441044594200EBDD
:1044C0004100401E00E0C01D0028FCDB072190FBDE
:1044D000F1F201FB120000B90720C0B210BDFEE7E7
:1044E00088B0DFF80882DFF80892824C4FF4FA6A4D
:1044F0004FF4027B002500BF2BF0B6FC01F040FC1E
:1045000001F096FC002251467B48FEF717FD08B1EA
:10451000FDF7B6F95A4679497448FFF72FFED8F8E7
:104520000000C16841F01001C16008217448FFF724
:1045300047FB08F041F9206A804700F04DFD032653
:1045400006E0761E206DF6B2804784F84C001EB15E
:1045500094F84C000028F4D1032606E0761E606E25
:10456000F6B2804784F8600026B194F86000002815
:10457000F4D102E094F8600008B9A06E80470326E9
:1045800006E0761EE06DF6B2804784F858001EB152
:1045900094F858000028F4D1032606E0761EA06B9C
:1045A000F6B2804784F830001EB194F8300000283D
:1045B000F4D1032606E0761E206FF6B2804784F819
:1045C0006C0026B194F86C000028F4D102E010F0E1
:1045D000FF0F01D1606F8047FDF752F8FDF71BF820
:1045E00090BB02221021684602F056FC9DF80000A4
:1045F00008B1012804D19DF8011031B1012904D07E
:1046000084F8355089F8005003E084F8350089F8C3
:104610000010002201A93848FEF726FD03222021C0
:10462000684602F039FC9DF800009DF806108842AB
:104630000AD19DF801009DF8021041EA002094F88B
:10464000301009B908F0D4FA20698047A069804782
:10465000FCF742FCFCF7A8FC00F08CFD00214FF4B5
:104660008C73F0220846009500F03BFD0A2008F00C
:10467000B9F8322000F05AFE1826CDE900564FF660
:10468000FF773B461FA28C214820029500F0E4FEF4
:1046900001231A461EA103A8009503F01BFACDE9D9
:1046A00000563B4603AABC212220029500F0D4FE0E
:1046B0004FF47A7008F096F8BD23F02274210020A0
:1046C000009500F00EFD18F0BFF91DF03BFB1DF04A
:1046D00061FB2AF0FFFD2CF0B9FA00202BF048FA1C
:1046E0004FF4FA7021F0E2FA06E70000280B0020F0
:1046F0008401002078000020080A0020700C0020AF
:10470000E00A002057656C636F6D652100000000B2
:104710004F562D5761746368205625642E25642EEC
:104720002564000070B586B001F0D2FE80685D4956
:1047300088427DD15C4D03A829688847594C9DF873
:104740001120103C6078824208D0627057A1684600
:1047500003F0C0F96946E06919F042F89DF81020AD
:104760002078824208D0227052A1684603F0B2F944
:104770006946606919F034F84A4E9DF80E30E078C9
:104780009C36834214D0E3709DF80C002071A2780F
:1047900049A1684603F09EF96946E06A19F020F8DD
:1047A000207906EB800050F8041C206B19F018F8F3
:1047B0009DF80D20A078824216D0A2709DF80E3090
:1047C000E3709DF80C0020713BA1684603F082F96C
:1047D0006946E06A19F004F8207906EB800050F889
:1047E000041C206B18F0FCFF297F607981420CD0FB
:1047F0006171206A11F0A9FE627932A1684603F066
:1048000069F96946A06A18F0EBFF6A8EA0898242B6
:1048100008D0A2812DA1684603F05CF96946E06BDF
:1048200018F0DEFF95F94D1094F90900814200E07F
:1048300036E00DD06172606C11F087FE94F90920AA
:1048400022A1684603F046F96946E06C18F0C8FFFB
:1048500095F94E1094F90A0081420DD0A172606D55
:1048600011F073FE94F90A2018A1684603F032F99A
:104870006946A06D18F0B4FF1548E17A02789142BC
:104880000ED0E27222B111A1684603F023F903E0D1
:1048900010A1684603F01EF96946606E18F0A0FF8B
:1048A00006B070BD5402002078000020253032642C
:1048B00000000000253264002532642D253032646A
:1048C000000000002532642525000000256400005A
:1048D000480300202D2D000010B5002205E000BF88
:1048E00050F82240521C2344D2B28A42F8D3B3FB80
:1048F000F1F010BD10B586B0044614216846FBF7F0
:1049000061FD208900900120019002900220039017
:1049100069462068FDF7A4FD6089009069466068DB
:10492000FDF79EFD06B010BD70B5064608240025B3
:1049300001F0B4FF13E06806050E0021304601F0D7
:104940009BFF022007F05BFF0121304601F094FF3E
:10495000012007F054FF304601F097FF0543641E25
:10496000E4B2E8D20021304601F086FF304601F083
:10497000B3FF284670BD10B50446002101F0A3FF27
:10498000012007F03CFF0121204601F075FF0120C6
:1049900007F035FF0021204601F06EFFBDE8104012
:1049A000012007F02CBF000070B50C460646082514
:1049B00019E000BF01F060FF022007F020FF04F0C3
:1049C0008001304601F07FFF012007F018FF6006EC
:1049D000040E012007F013FF0121304601F04CFFC7
:1049E000012007F00CFF6D1EEDB24FF000013046C4
:1049F000E0D201F041FFBDE87040022007F0FFBEA9
:104A000010B50446012101F05EFF012007F0F7FE1A
:104A10000121204601F030FF012007F0F0FE0021C7
:104A2000204601F029FFBDE81040022007F0E7BE54
:104A300010B50446012101F046FF022007F0DFFE19
:104A40000121204601F018FF012007F0D8FE0021C7
:104A5000204601F038FF012007F0D1FE002120465A
:104A600001F00AFFBDE81040012007F0C8BE10B5F4
:104A70000446002101F000FF022007F0C0FE0021E3
:104A8000204601F020FF012007F0B9FE0121204659
:104A900001F0F2FE012007F0B2FE0121204601F0F4
:104AA00012FFBDE81040012007F0A9BE70B5054611
:104AB000052401F0F3FE0121284601F0DDFE05E0AA
:104AC000641EA4B2012007F09AFE84B1284601F0CA
:104AD000DCFE0028F4D1284601F0FEFE0021284625
:104AE00001F0CAFE022007F08AFE002070BD2846B1
:104AF00001F0F2FE2846FFF7BAFF012070BD00006A
:104B00002DE9F0411D4617460C468046069EFFF7EC
:104B10008FFF6006010E4046FFF746FF4046FFF755
:104B2000C5FF28B14046FFF7A2FF0120BDE8F08194
:104B300039464046FFF738FF4046FFF7B7FF40468B
:104B4000FFF776FF012000EB4400C1B24046FFF7BB
:104B50002BFF4046FFF7AAFF00246F1E0AE000BFAC
:104B6000FFF7E2FE3055BC4202DA4046FFF703FF92
:104B7000641CE4B2AC424046F2D3FFF741FF40462A
:104B8000FFF775FF0020D1E770B516460C460546C5
:104B9000FFF74EFF6006010E2846FFF705FF284687
:104BA000FFF784FF31462846FFF7FEFE2846FFF751
:104BB0007DFF2846FFF73CFF012000EB4400C1B217
:104BC0002846FFF7F1FE2846FFF770FF2846FFF75B
:104BD000ABFE04462846FFF713FF2846FFF747FFC2
:104BE000204670BD2DE9F0411D4617460C46804613
:104BF000069EFFF71DFF6006010E4046FFF7D4FE3C
:104C00004046FFF753FF28B14046FFF730FF012031
:104C1000BDE8F08139464046FFF7C6FE4046FFF743
:104C200045FF002408E0315D4046FFF7BDFE4046E9
:104C3000FFF73CFF641CE4B2AC42F4D34046FFF7FC
:104C400016FF012007F0DBFD0020E1E72DE9F04130
:104C50001D4616460C460746FFF7EAFE6006010EA3
:104C60003846FFF7A1FE3846FFF720FF28B1384647
:104C7000FFF7FDFE0120BDE8F08131463846FFF721
:104C800093FE3846FFF712FF29463846FFF78CFEA1
:104C90003846FFF70BFF3846FFF7E9FE012007F023
:104CA000AEFD0020E7E700000EB50024DFF8A0808D
:104CB000284FDFF8A490294E8DF800408DF804406D
:104CC0002546012300226946386821F0C1F818B949
:104CD000052000F02BFB01250123002201A9D8F8B3
:104CE000000021F0B5F808B135B117E01C48346078
:104CF0000025007800F01AFB1A48007800EB40010C
:104D0000C1EBC0103168B1EBC00F07D38DF808407C
:104D100000231A4602A9386821F0F8F899F8000033
:104D200000EB4001C1EBC0103168B1EBC00F0BD3F9
:104D300001208DF808000C48002534602B462A46D7
:104D400002A9006821F0E2F80A2020F0AFFFB8E7DE
:104D5000540000204C000020110500206C000020B1
:104D60004A020020100500205000002000224FF4CD
:104D700080710148FDF771BC000002400122110260
:104D80000148FDF76ABC00000000024070B586B023
:104D900014216846FBF716FB0E480025016841F018
:104DA0000101016000680C4E00F001004FF48074B6
:104DB00005902A4621463046FDF74FFC0121CDE9FA
:104DC0000041CDE9021569463046FDF749FB06B0C2
:104DD00070BD000030380240000002402DE9F0476D
:104DE0004FF00009504C514E4FF0020801274D463C
:104DF00018B127706570A57055E0A078002850D0D4
:104E000020F0F1FF6168401AB0F5967F46D2207815
:104E1000E8B120213046FDF713FC20B110213046C7
:104E2000FDF70EFC98B1032020F040FF2021304612
:104E3000FDF706FC00B9677010213046FDF700FC55
:104E400010B184F8018001E0607828B325706078A3
:104E500010B320213046FDF7F3FBE8B110213046B6
:104E6000FDF7EEFBC0B9032020F020FF20213046E3
:104E7000FDF7E6FB80B110213046FDF7E1FB58B9A4
:104E800027706178A078814205D1801CA570C0B2DE
:104E90006570BDE8F08765700020FAE7A078A5701E
:104EA000F7E72078E8B120213046FDF7C9FB20B1B3
:104EB00010213046FDF7C4FB98B1032020F0F6FE28
:104EC00020213046FDF7BCFB00B967701021304649
:104ED000FDF7B6FB10B184F8018001E06078C8B13D
:104EE00025706078B0B120213046FDF7A9FB88B16C
:104EF00010213046FDF7A4FB60B9032020F0D6FE58
:104F000020213046FDF79CFB20B110213046FDF7F3
:104F100097FB08B14846BCE727706078A07020F086
:104F200062FF6060B7E700003C070020000002401D
:104F30000EB50020234C244D244E8DF800008DF832
:104F400008008DF804000020FFF748FF012813D067
:104F5000022804D0032821D004281BD11EE001F030
:104F6000B7FA80681A49884205D11A4801230022FD
:104F700002A900680CE002208DF800000123002245
:104F80006946206820F0C2FF0123002201A9286899
:104F900020F0BCFF012020F089FED4E78DF800004E
:104FA000012300226946206820F0B0FF012300227F
:104FB00001A9286820F0AAFF00231A466946306834
:104FC000E6E70000480000205400002064000020B4
:104FD000540200205000002030B587B014216846EC
:104FE000FBF7F0F918480024016841F00101016065
:104FF0000068164D00F001000590202000904FF44D
:10500000041001900120029069462846FDF728FA15
:10501000102000904FF48810CDE90104694628461D
:10502000FDF71EFA002205211720FDF7C3FB17200C
:10503000FDF7B3FB002205210A20FDF7BBFB0A2088
:10504000FDF7ABFB07B030BD303802400000024036
:105050002DE9F04104461D4616460F462A2000F071
:1050600029FA204600F016FA304600F013FA2B20F9
:1050700000F020FA384600F00DFA284600F00AFA4F
:10508000BDE8F0412C2000F015BA000002490020D4
:105090000968C86370470000E00A002070B55E1A16
:1050A000141A641C761C74431433143164009BB2CC
:1050B00089B2049DFFF7CCFFA2B22946BDE870403B
:1050C0000148FEF7B3BA0000280A002010B51446C4
:1050D0000B460246FFF7BCFF2046BDE8104000F03B
:1050E000D9B92DE9F04780461F4603F1130083B27A
:1050F0001646501E82B20C4601F1140081B24046A1
:10510000DDF82090FFF7A4FF0AE0454604E048469A
:1051100000F0C0F96D1CADB2B542F8D3641CA4B266
:10512000BC42F2D3BDE8F08730B587B014216846A1
:10513000FBF748F90D48016841F002010160006881
:105140004FF4607400F0020005900120CDE90040AA
:105150000320074D039069462846FDF781F9012297
:1051600021462846FDF779FA07B030BD30380240B5
:105170000004024010B5FFF7D7FF684C00224FF43F
:1051800080712046FDF769FA002280212046FDF754
:1051900064FA642007F026FB012280212046FDF7F7
:1051A0005CFA642007F01EFB112000F083F97820E0
:1051B00007F018FB362000F07DF9002000F090F990
:1051C0003A2000F077F9052000F08AF9B22000F0CB
:1051D00071F90C2000F084F90C2000F081F9002016
:1051E00000F07EF9332000F07BF9332000F078F9ED
:1051F000B72000F05FF9352000F072F9BB2000F015
:1052000059F9192000F06CF9C02000F053F92C2056
:1052100000F066F9C22000F04DF9012000F060F9BD
:10522000C32000F047F9122000F05AF9C42000F022
:1052300041F9202000F054F9C62000F03BF90F207E
:1052400000F04EF9D02000F035F9A42000F048F924
:10525000A12000F045F9E02000F02CF9D02000F06A
:105260003FF9042000F03CF90D2000F039F911203D
:1052700000F036F9132000F033F92B2000F030F95C
:105280003F2000F02DF9542000F02AF94C2000F0C6
:1052900027F9182000F024F90D2000F021F90B2047
:1052A00000F01EF91F2000F01BF9232000F018F970
:1052B000E12000F0FFF8D02000F012F9042000F007
:1052C0000FF90C2000F00CF9112000F009F913205F
:1052D00000F006F92C2000F003F93F2000F000F95F
:1052E000442000F0FDF8512000F0FAF82F2000F0E3
:1052F000F7F81F2000F0F4F81F2000F0F1F820204C
:1053000000F0EEF8232000F0EBF8212000F0D2F8B6
:10531000BDE81040292000F0CDB800000004024094
:105320000149086070470000B8060020411F5F294E
:1053300009D84FF4967110FB01F06421B0FBF1F035
:1053400001490968C8637047E00A00202DE9FF4F52
:1053500081B00446DDF83C9000904FEA59074FF0C9
:105360000008780700D0012000EBD70000FB09FB04
:10537000203AD0B20390029802994844401E83B26A
:10538000E019401E82B22046FFF762FE002553E07E
:10539000B9F10C0F2AD0B9F1100F2ED0B9F1180FB6
:1053A0002ED0B9F1200F49D12749039801EB801085
:1053B000002610F805A0109800284FF0010000FA10
:1053C00006F000EA0A0022D020B12046049A029991
:1053D000FFF77CFE641C0098A4B2201AB84225D1C5
:1053E0000298009C401C80B2029023E00398174969
:1053F00000EB400001EB8000DAE71549039803E079
:105400000398144900EB400001EB0010D0E708B10D
:10541000049800E00E9800F03DF808F10100C0B2D9
:10542000B0FBF7F1804607FB118050B1761CF6B255
:10543000082EC0D36D1CADB25D45A9D305B0BDE843
:10544000F08F4FF00008F5E7CCCC040898B00408C2
:105450000CB50408FCBA04082DE9FE4F9946DDE9B5
:105460000D6714468A460546DDF830800CE0CDF81D
:1054700000804B4651462846CDE90167FFF766FF9D
:1054800005EB560085B2641C2278002AEFD1BDE8F6
:10549000FE8F000008B5010A8DF800108DF801009C
:1054A0000123022269460248FEF70CF808BD0000FD
:1054B000280A002070B5094D06464FF400740022FA
:1054C00021462846FDF7C9F8304600F009F8214684
:1054D0002846BDE870400122FDF7BFB80004024035
:1054E00001B501231A4669460148FDF7EBFF08BDE7
:1054F000280A002038B527480024016841F002013D
:105500000160006800F0020000902348FFF7F2F904
:105510001021232000F0BEF80120FCF7EBFE2F2124
:10552000202000F0B7F80120FCF7E4FE202000F076
:10553000A5F82F2807D00A20FCF7DCFE641CE4B293
:10554000032CE5D324E00120FCF7D4FE0024102135
:10555000002000F09FF80120FCF7CCFE8021012004
:1055600000F098F80120FCF7C5FE0021022000F0B1
:1055700091F80120FCF7BEFE022000F07FF8002821
:1055800007D00A20FCF7B6FE641CE4B2032CDED37D
:10559000012038BD30380240E806002010B5032154
:1055A000022000F077F80F21BDE81040202000F025
:1055B00071B810B50021022000F06CF82F21BDE871
:1055C0001040202000F066B87CB514460D46064613
:1055D0006A460621282000F035F89DF801009DF864
:1055E000003043EA002333809DF8030001029DF858
:1055F0000200084328809DF8050001029DF8040080
:10560000084320807CBD7CB514460D4606466A469C
:105610000621032000F016F89DF800009DF80130E7
:1056200043EA002333809DF8020001029DF8030045
:10563000084320809DF8040001029DF805000843FE
:1056400028807CBD2DE9F04190460E46054619287C
:1056500001D9192700E01E27002409E02819C2B249
:1056600039460548FFF790FA08F80400641CE4B2D4
:10567000B442F3D3BDE8F081E8060020192801D92F
:10568000192100E01E2102460148FFF77DBA000003
:10569000E80600200B46192801D9192100E01E2137
:1056A00002460148FFF7D2BAE8060020F8B51F4CC1
:1056B0004EF66021A068B0FBF1F23C21B2FBF1F3A1
:1056C00001FB13224FF47A73B0FBF3F3B3FBF1F554
:1056D00001FB15316270A1700A21B0FBF1F3642562
:1056E000B3FBF5F605FB1633E370B0FBF1F301FBFA
:1056F000130020710EA1684602F0ECF96946606A59
:1057000018F06EF8A2780AA1684602F0E3F969463B
:10571000E06A18F065F8E27805A1684602F0DAF967
:105720006946606B18F05CF8F8BD0000F4050020D5
:10573000253032640000000008B500200D4C8DF8C3
:1057400000004FF47A75002012F078FDA84205D2CF
:1057500000231A466946A06C20F0D8FB1EF0ACFC72
:1057600028B11E2800D91E2020F0A0FAEBE7012066
:10577000FAE700000C0000208AB041F2883600BF32
:1057800006F04EF9074600250BE07C1BB44200D919
:105790003446204620F08AFA25440FF091FD002877
:1057A000EED1BD42F1D30FF08BFD0028E8D100F01F
:1057B00031FB0025089507950695059504950395F9
:1057C000029501954FF47A7020F070FA0FF078FD91
:1057D00018B100BF00F02CFBD2E700F081FA00F016
:1057E000E3FA00287ED000F0A7FA044600F0C2FADF
:1057F000074600F09BFA814600F0A4FA804600F0CC
:10580000ADFA009000F0B0FA824600F089FA8346C3
:1058100000F09EFAF4B3EFB3B9F1000F3BD0B8F14A
:10582000000F38D00099A9B3BAF1000F33D0BBF103
:10583000000F30D070B30599611AC91C06292AD807
:105840000499791A891C042925D8089AA9EB020120
:10585000491D0A291FD8079AA8EB0201491D0A29E8
:1058600019D8039A0099891A491D0A2913D8069A4A
:10587000AAEB0201491D0A290DD8029AABEB0201DD
:10588000491D0A2907D80199411A491D0A2902D838
:10589000012101E0FFE70021CDE90474CDE907898A
:1058A000009ACDF818A00392CDE9010B11B16D1C3F
:1058B000EDB200E000252449254A052D0C7023494E
:1058C0000F7082F80090234A82F80080224A0099E3
:1058D0001170224A234982F800A0214A82F800B0C0
:1058E000087000E02DE0FFF46DAF00213C3C292C56
:1058F00000D302215F2F01D241F00401B8F1460F1D
:1059000001D241F00801AAF15A02332A05D2BBF1B3
:105910003C0F02D3BBF15A0F01D941F010011638E8
:10592000632801D341F02001B9F10F0F01D241F0FA
:10593000400111B1084601F03BF80B490120087005
:1059400048E700253EE70000480300204903002007
:1059500084030020850300208603002087030020A5
:105960008803002089030020700000202DE9F04703
:1059700086B000F0ADFD8068564988427ED1A1F125
:1059800014043C25E079E8B300F0AAF900F00CFA21
:105990000021002873D08A464F49C1F800A000F0CA
:1059A000C5F9804600F0CEF9814600F0D7F90746E8
:1059B00000F0DAF9064600F0B3F9054600F0C8F940
:1059C0000146B8F1000F3BD0B9F1000F38D0A7B3B2
:1059D0009EB395B389B3627A2046B8EB020200D534
:1059E0005242052A2CDC837AB9EB030200D55242DD
:1059F000052A25DCC27ABA1A00D55242052A1FDCD4
:105A0000027B00E012E0B21A00D55242052A17DCF0
:105A1000427BAA1A00D55242052A11DCA07B081A43
:105A200000D5404205280BDC01200AE0A0790028BF
:105A30004BD02069401C206137E001E0694641E01D
:105A4000002084F8098084F80A90E7722673657351
:105A5000A17318B1207A401C207201E084F808A0DC
:105A600084F8008084F80190A770E6702571617158
:105A70000120C4F810A05546A07101E025E00BE01C
:105A800029F0CAFE207A052804D300F0D1F9E57187
:105A900012A117E018A115E021722069401C2061B5
:105AA000A079A8B129F0B8FE2069B0FBF5F222B1C7
:105AB00015A1684602F00EF8C0E718A1684602F08A
:105AC00009F8BBE7E06A17F08BFE06B0BDE8F08787
:105AD00016A1F7E7980300206C000020E782B9E5E3
